{"contracts/RideLedger.sol":{"ExtendedRiderLedger":{"abi":[{"inputs":[{"internalType":"address","name":"forwarder","type":"address"},{"internalType":"address","name":"_backend","type":"address"}],"stateMutability":"nonpayable","type":"constructor"},{"anonymous":false,"inputs":[{"indexed":true,"internalType":"uint256","name":"rideId","type":"uint256"},{"indexed":true,"internalType":"address","name":"by","type":"address"}],"name":"DisputedSplit","type":"event"},{"anonymous":false,"inputs":[{"indexed":true,"internalType":"uint256","name":"rideId","type":"uint256"},{"indexed":true,"internalType":"address","name":"by","type":"address"}],"name":"RideDisputed","type":"event"},{"anonymous":false,"inputs":[{"indexed":true,"internalType":"uint256","name":"rideId","type":"uint256"},{"indexed":false,"internalType":"bytes32","name":"rideHash","type":"bytes32"},{"indexed":false,"internalType":"uint256","name":"fare","type":"uint256"},{"indexed":true,"internalType":"address","name":"rider","type":"address"},{"indexed":true,"internalType":"address","name":"driver","type":"address"},{"indexed":false,"internalType":"bytes32","name":"riderName","type":"bytes32"},{"indexed":false,"internalType":"bytes32","name":"driverName","type":"bytes32"},{"indexed":false,"internalType":"uint256","name":"numberPlate","type":"uint256"},{"indexed":false,"internalType":"uint256","name":"riderPhoneNumber","type":"uint256"},{"indexed":false,"internalType":"uint256","name":"driverPhoneNumber","type":"uint256"}],"name":"RideLogged","type":"event"},{"anonymous":false,"inputs":[{"indexed":true,"internalType":"uint256","name":"rideId","type":"uint256"},{"indexed":false,"internalType":"bytes32","name":"rideHash","type":"bytes32"},{"indexed":true,"internalType":"address","name":"rider","type":"address"},{"indexed":true,"internalType":"address","name":"driver","type":"address"},{"indexed":false,"internalType":"uint96","name":"riderPaid","type":"uint96"},{"indexed":false,"internalType":"uint96","name":"driverShare","type":"uint96"},{"indexed":false,"internalType":"uint96","name":"platformFee","type":"uint96"}],"name":"RideSplitLogged","type":"event"},{"inputs":[],"name":"admin","outputs":[{"internalType":"address","name":"","type":"address"}],"stateMutability":"view","type":"function"},{"inputs":[],"name":"backend","outputs":[{"internalType":"address","name":"","type":"address"}],"stateMutability":"view","type":"function"},{"inputs":[{"internalType":"uint256","name":"id","type":"uint256"}],"name":"dispute","outputs":[],"stateMutability":"nonpayable","type":"function"},{"inputs":[{"internalType":"uint256","name":"rideId","type":"uint256"}],"name":"disputeRide","outputs":[],"stateMutability":"nonpayable","type":"function"},{"inputs":[{"internalType":"address","name":"forwarder","type":"address"}],"name":"isTrustedForwarder","outputs":[{"internalType":"bool","name":"","type":"bool"}],"stateMutability":"view","type":"function"},{"inputs":[{"internalType":"bytes32","name":"rideHash","type":"bytes32"},{"internalType":"address","name":"rider","type":"address"},{"internalType":"address","name":"driver","type":"address"},{"internalType":"uint96","name":"riderPaid","type":"uint96"},{"internalType":"uint96","name":"driverShare","type":"uint96"},{"internalType":"uint96","name":"platformFee","type":"uint96"}],"name":"logRide","outputs":[{"internalType":"uint256","name":"","type":"uint256"}],"stateMutability":"nonpayable","type":"function"},{"inputs":[{"internalType":"bytes32","name":"_rideHash","type":"bytes32"},{"internalType":"uint256","name":"_fare","type":"uint256"},{"internalType":"address","name":"_rider","type":"address"},{"internalType":"address","name":"_driver","type":"address"},{"internalType":"bytes32","name":"_riderName","type":"bytes32"},{"internalType":"bytes32","name":"_driverName","type":"bytes32"},{"internalType":"uint256","name":"_numberPlate","type":"uint256"},{"internalType":"uint256","name":"_riderPhoneNumber","type":"uint256"},{"internalType":"uint256","name":"_driverPhoneNumber","type":"uint256"}],"name":"logRide","outputs":[{"internalType":"uint256","name":"","type":"uint256"}],"stateMutability":"nonpayable","type":"function"},{"inputs":[],"name":"nextRideId","outputs":[{"internalType":"uint256","name":"","type":"uint256"}],"stateMutability":"view","type":"function"},{"inputs":[{"internalType":"uint256","name":"","type":"uint256"}],"name":"rides","outputs":[{"internalType":"bytes32","name":"rideHash","type":"bytes32"},{"internalType":"uint256","name":"fare","type":"uint256"},{"internalType":"address","name":"rider","type":"address"},{"internalType":"address","name":"driver","type":"address"},{"internalType":"bool","name":"disputed","type":"bool"},{"internalType":"bytes32","name":"riderName","type":"bytes32"},{"internalType":"bytes32","name":"driverName","type":"bytes32"},{"internalType":"uint256","name":"numberPlate","type":"uint256"},{"internalType":"uint256","name":"riderPhoneNumber","type":"uint256"},{"internalType":"uint256","name":"driverPhoneNumber","type":"uint256"}],"stateMutability":"view","type":"function"},{"inputs":[{"internalType":"uint256","name":"","type":"uint256"}],"name":"splits","outputs":[{"internalType":"uint96","name":"riderPaid","type":"uint96"},{"internalType":"uint96","name":"driverShare","type":"uint96"},{"internalType":"uint96","name":"platformFee","type":"uint96"}],"stateMutability":"view","type":"function"}],"evm":{"bytecode":{"linkReferences":{},"object":"60a06040523480156200001157600080fd5b506040516200195638038062001956833981810160405281019062000037919062000210565b81808073ffffffffffffffffffffffffffffffffffffffff1660808173ffffffffffffffffffffffffffffffffffffffff1681525050506200007e6200010860201b60201c565b600260006101000a81548173ffffffffffffffffffffffffffffffffffffffff021916908373ffffffffffffffffffffffffffffffffffffffff1602179055505080600460006101000a81548173ffffffffffffffffffffffffffffffffffffffff021916908373ffffffffffffffffffffffffffffffffffffffff160217905550505062000257565b60006200011a6200011f60201b60201c565b905090565b600062000132336200016460201b60201c565b156200014857601436033560601c905062000160565b620001586200019e60201b60201c565b905062000161565b5b90565b600060805173ffffffffffffffffffffffffffffffffffffffff168273ffffffffffffffffffffffffffffffffffffffff16149050919050565b600033905090565b600080fd5b600073ffffffffffffffffffffffffffffffffffffffff82169050919050565b6000620001d882620001ab565b9050919050565b620001ea81620001cb565b8114620001f657600080fd5b50565b6000815190506200020a81620001df565b92915050565b600080604083850312156200022a5762000229620001a6565b5b60006200023a85828601620001f9565b92505060206200024d85828601620001f9565b9150509250929050565b6080516116e36200027360003960006106f801526116e36000f3fe608060405234801561001057600080fd5b506004361061009e5760003560e01c8063754ed83a11610066578063754ed83a1461018a57806386d6282c146101a8578063884c3006146101c4578063f595b8b6146101f6578063f851a440146102125761009e565b8063099e4133146100a35780634c76114e146100c15780635205f112146100f1578063572b6c051461012a57806371ef991e1461015a575b600080fd5b6100ab610230565b6040516100b89190610eb7565b60405180910390f35b6100db60048036038101906100d69190610f7d565b610256565b6040516100e89190611023565b60405180910390f35b61010b6004803603810190610106919061106a565b610653565b6040516101219a999897969594939291906110c1565b60405180910390f35b610144600480360381019061013f919061115d565b6106f4565b604051610151919061118a565b60405180910390f35b610174600480360381019061016f91906111a5565b61074c565b6040516101819190611023565b60405180910390f35b610192610a03565b60405161019f9190611023565b60405180910390f35b6101c260048036038101906101bd919061106a565b610a09565b005b6101de60048036038101906101d9919061106a565b610bcf565b6040516101ed9392919061127e565b60405180910390f35b610210600480360381019061020b919061106a565b610c41565b005b61021a610e07565b6040516102279190610eb7565b60405180910390f35b600460009054906101000a900473ffffffffffffffffffffffffffffffffffffffff1681565b6000600460009054906101000a900473ffffffffffffffffffffffffffffffffffffffff1673ffffffffffffffffffffffffffffffffffffffff16610299610e2d565b73ffffffffffffffffffffffffffffffffffffffff16146102ef576040517f08c379a00000000000000000000000000000000000000000000000000000000081526004016102e690611312565b60405180910390fd5b60006001600081548092919061030490611361565b9190505590506000836bffffffffffffffffffffffff16856bffffffffffffffffffffffff16876bffffffffffffffffffffffff1661034391906113a9565b61034d91906113a9565b90506040518061014001604052808a81526020018281526020018973ffffffffffffffffffffffffffffffffffffffff1681526020018873ffffffffffffffffffffffffffffffffffffffff1681526020016000151581526020016000801b81526020016000801b815260200160008152602001600081526020016000815250600080848152602001908152602001600020600082015181600001556020820151816001015560408201518160020160006101000a81548173ffffffffffffffffffffffffffffffffffffffff021916908373ffffffffffffffffffffffffffffffffffffffff16021790555060608201518160030160006101000a81548173ffffffffffffffffffffffffffffffffffffffff021916908373ffffffffffffffffffffffffffffffffffffffff16021790555060808201518160030160146101000a81548160ff02191690831515021790555060a0820151816004015560c0820151816005015560e08201518160060155610100820151816007015561012082015181600801559050506040518060600160405280876bffffffffffffffffffffffff168152602001866bffffffffffffffffffffffff168152602001856bffffffffffffffffffffffff168152506003600084815260200190815260200160002060008201518160000160006101000a8154816bffffffffffffffffffffffff02191690836bffffffffffffffffffffffff160217905550602082015181600001600c6101000a8154816bffffffffffffffffffffffff02191690836bffffffffffffffffffffffff16021790555060408201518160010160006101000a8154816bffffffffffffffffffffffff02191690836bffffffffffffffffffffffff1602179055509050508673ffffffffffffffffffffffffffffffffffffffff168873ffffffffffffffffffffffffffffffffffffffff16837f646a0b34353dbd93ec0f8cd3f3723725c891eca95f19e17ae5f8a7a5edb8be448c8a8a8a60405161063c94939291906113dd565b60405180910390a481925050509695505050505050565b60006020528060005260406000206000915090508060000154908060010154908060020160009054906101000a900473ffffffffffffffffffffffffffffffffffffffff16908060030160009054906101000a900473ffffffffffffffffffffffffffffffffffffffff16908060030160149054906101000a900460ff1690806004015490806005015490806006015490806007015490806008015490508a565b60007f000000000000000000000000000000000000000000000000000000000000000073ffffffffffffffffffffffffffffffffffffffff168273ffffffffffffffffffffffffffffffffffffffff16149050919050565b6000600260009054906101000a900473ffffffffffffffffffffffffffffffffffffffff1673ffffffffffffffffffffffffffffffffffffffff1661078f610e2d565b73ffffffffffffffffffffffffffffffffffffffff16146107e5576040517f08c379a00000000000000000000000000000000000000000000000000000000081526004016107dc9061146e565b60405180910390fd5b6000600160008154809291906107fa90611361565b9190505590506040518061014001604052808c81526020018b81526020018a73ffffffffffffffffffffffffffffffffffffffff1681526020018973ffffffffffffffffffffffffffffffffffffffff16815260200160001515815260200188815260200187815260200186815260200185815260200184815250600080838152602001908152602001600020600082015181600001556020820151816001015560408201518160020160006101000a81548173ffffffffffffffffffffffffffffffffffffffff021916908373ffffffffffffffffffffffffffffffffffffffff16021790555060608201518160030160006101000a81548173ffffffffffffffffffffffffffffffffffffffff021916908373ffffffffffffffffffffffffffffffffffffffff16021790555060808201518160030160146101000a81548160ff02191690831515021790555060a0820151816004015560c0820151816005015560e08201518160060155610100820151816007015561012082015181600801559050508773ffffffffffffffffffffffffffffffffffffffff168973ffffffffffffffffffffffffffffffffffffffff16827ff57fc3a40d17c0710c18167ad458c18988b72ba6e7d6f5791a73b4022cbb6aa48e8e8c8c8c8c8c6040516109ea979695949392919061148e565b60405180910390a4809150509998505050505050505050565b60015481565b600080600083815260200190815260200160002090506000610a29610e2d565b90508160020160009054906101000a900473ffffffffffffffffffffffffffffffffffffffff1673ffffffffffffffffffffffffffffffffffffffff168173ffffffffffffffffffffffffffffffffffffffff161480610ad857508160030160009054906101000a900473ffffffffffffffffffffffffffffffffffffffff1673ffffffffffffffffffffffffffffffffffffffff168173ffffffffffffffffffffffffffffffffffffffff16145b610b17576040517f08c379a0000000000000000000000000000000000000000000000000000000008152600401610b0e90611549565b60405180910390fd5b8160030160149054906101000a900460ff1615610b69576040517f08c379a0000000000000000000000000000000000000000000000000000000008152600401610b60906115b5565b60405180910390fd5b60018260030160146101000a81548160ff0219169083151502179055508073ffffffffffffffffffffffffffffffffffffffff16837f67a3ac0f918725a518d5b5e6ea658c782a39cc66833f21f02ed5c9ff36d3134d60405160405180910390a3505050565b60036020528060005260406000206000915090508060000160009054906101000a90046bffffffffffffffffffffffff169080600001600c9054906101000a90046bffffffffffffffffffffffff16908060010160009054906101000a90046bffffffffffffffffffffffff16905083565b600080600083815260200190815260200160002090506000610c61610e2d565b90508160020160009054906101000a900473ffffffffffffffffffffffffffffffffffffffff1673ffffffffffffffffffffffffffffffffffffffff168173ffffffffffffffffffffffffffffffffffffffff161480610d1057508160030160009054906101000a900473ffffffffffffffffffffffffffffffffffffffff1673ffffffffffffffffffffffffffffffffffffffff168173ffffffffffffffffffffffffffffffffffffffff16145b610d4f576040517f08c379a0000000000000000000000000000000000000000000000000000000008152600401610d4690611621565b60405180910390fd5b8160030160149054906101000a900460ff1615610da1576040517f08c379a0000000000000000000000000000000000000000000000000000000008152600401610d989061168d565b60405180910390fd5b60018260030160146101000a81548160ff0219169083151502179055508073ffffffffffffffffffffffffffffffffffffffff16837f7793040ba868ce7ae6c58f6eeb426d2680fdf42e42bcaee16bfcaf4269dba99560405160405180910390a3505050565b600260009054906101000a900473ffffffffffffffffffffffffffffffffffffffff1681565b6000610e37610e3c565b905090565b6000610e47336106f4565b15610e5b57601436033560601c9050610e6a565b610e63610e6e565b9050610e6b565b5b90565b600033905090565b600073ffffffffffffffffffffffffffffffffffffffff82169050919050565b6000610ea182610e76565b9050919050565b610eb181610e96565b82525050565b6000602082019050610ecc6000830184610ea8565b92915050565b600080fd5b6000819050919050565b610eea81610ed7565b8114610ef557600080fd5b50565b600081359050610f0781610ee1565b92915050565b610f1681610e96565b8114610f2157600080fd5b50565b600081359050610f3381610f0d565b92915050565b60006bffffffffffffffffffffffff82169050919050565b610f5a81610f39565b8114610f6557600080fd5b50565b600081359050610f7781610f51565b92915050565b60008060008060008060c08789031215610f9a57610f99610ed2565b5b6000610fa889828a01610ef8565b9650506020610fb989828a01610f24565b9550506040610fca89828a01610f24565b9450506060610fdb89828a01610f68565b9350506080610fec89828a01610f68565b92505060a0610ffd89828a01610f68565b9150509295509295509295565b6000819050919050565b61101d8161100a565b82525050565b60006020820190506110386000830184611014565b92915050565b6110478161100a565b811461105257600080fd5b50565b6000813590506110648161103e565b92915050565b6000602082840312156110805761107f610ed2565b5b600061108e84828501611055565b91505092915050565b6110a081610ed7565b82525050565b60008115159050919050565b6110bb816110a6565b82525050565b6000610140820190506110d7600083018d611097565b6110e4602083018c611014565b6110f1604083018b610ea8565b6110fe606083018a610ea8565b61110b60808301896110b2565b61111860a0830188611097565b61112560c0830187611097565b61113260e0830186611014565b611140610100830185611014565b61114e610120830184611014565b9b9a5050505050505050505050565b60006020828403121561117357611172610ed2565b5b600061118184828501610f24565b91505092915050565b600060208201905061119f60008301846110b2565b92915050565b60008060008060008060008060006101208a8c0312156111c8576111c7610ed2565b5b60006111d68c828d01610ef8565b99505060206111e78c828d01611055565b98505060406111f88c828d01610f24565b97505060606112098c828d01610f24565b965050608061121a8c828d01610ef8565b95505060a061122b8c828d01610ef8565b94505060c061123c8c828d01611055565b93505060e061124d8c828d01611055565b92505061010061125f8c828d01611055565b9150509295985092959850929598565b61127881610f39565b82525050565b6000606082019050611293600083018661126f565b6112a0602083018561126f565b6112ad604083018461126f565b949350505050565b600082825260208201905092915050565b7f457874656e6465643a2063616c6c6572206973206e6f74206261636b656e6400600082015250565b60006112fc601f836112b5565b9150611307826112c6565b602082019050919050565b6000602082019050818103600083015261132b816112ef565b9050919050565b7f4e487b7100000000000000000000000000000000000000000000000000000000600052601160045260246000fd5b600061136c8261100a565b91507fffffffffffffffffffffffffffffffffffffffffffffffffffffffffffffffff820361139e5761139d611332565b5b600182019050919050565b60006113b48261100a565b91506113bf8361100a565b92508282019050808211156113d7576113d6611332565b5b92915050565b60006080820190506113f26000830187611097565b6113ff602083018661126f565b61140c604083018561126f565b611419606083018461126f565b95945050505050565b7f52696465724c65646765723a2063616c6c6572206973206e6f742061646d696e600082015250565b60006114586020836112b5565b915061146382611422565b602082019050919050565b600060208201905081810360008301526114878161144b565b9050919050565b600060e0820190506114a3600083018a611097565b6114b06020830189611014565b6114bd6040830188611097565b6114ca6060830187611097565b6114d76080830186611014565b6114e460a0830185611014565b6114f160c0830184611014565b98975050505050505050565b7f457874656e6465643a206e6f74207061727469636970616e7400000000000000600082015250565b60006115336019836112b5565b915061153e826114fd565b602082019050919050565b6000602082019050818103600083015261156281611526565b9050919050565b7f457874656e6465643a20616c7265616479206469737075746564000000000000600082015250565b600061159f601a836112b5565b91506115aa82611569565b602082019050919050565b600060208201905081810360008301526115ce81611592565b9050919050565b7f52696465724c65646765723a206e6f74207061727469636970616e7400000000600082015250565b600061160b601c836112b5565b9150611616826115d5565b602082019050919050565b6000602082019050818103600083015261163a816115fe565b9050919050565b7f52696465724c65646765723a20616c7265616479206469737075746564000000600082015250565b6000611677601d836112b5565b915061168282611641565b602082019050919050565b600060208201905081810360008301526116a68161166a565b905091905056fea2646970667358221220df6fd1c7ededd8d558abebf287ec52376e8efaa96d5499536b962816495bb35b64736f6c63430008140033","opcodes":"PUSH1 0xA0 PUSH1 0x40 MSTORE CALLVALUE DUP1 ISZERO PUSH3 0x11 JUMPI PUSH1 0x0 DUP1 REVERT JUMPDEST POP PUSH1 0x40 MLOAD PUSH3 0x1956 CODESIZE SUB DUP1 PUSH3 0x1956 DUP4 CODECOPY DUP2 DUP2 ADD PUSH1 0x40 MSTORE DUP2 ADD SWAP1 PUSH3 0x37 SWAP2 SWAP1 PUSH3 0x210 JUMP JUMPDEST DUP2 DUP1 DUP1 PUSH20 0xFFFFFFFFFFFFFFFFFFFFFFFFFFFFFFFFFFFFFFFF AND PUSH1 0x80 DUP2 PUSH20 0xFFFFFFFFFFFFFFFFFFFFFFFFFFFFFFFFFFFFFFFF AND DUP2 MSTORE POP POP POP PUSH3 0x7E PUSH3 0x108 PUSH1 0x20 SHL PUSH1 0x20 SHR JUMP JUMPDEST PUSH1 0x2 PUSH1 0x0 PUSH2 0x100 EXP DUP2 SLOAD DUP2 PUSH20 0xFFFFFFFFFFFFFFFFFFFFFFFFFFFFFFFFFFFFFFFF MUL NOT AND SWAP1 DUP4 PUSH20 0xFFFFFFFFFFFFFFFFFFFFFFFFFFFFFFFFFFFFFFFF AND MUL OR SWAP1 SSTORE POP POP DUP1 PUSH1 0x4 PUSH1 0x0 PUSH2 0x100 EXP DUP2 SLOAD DUP2 PUSH20 0xFFFFFFFFFFFFFFFFFFFFFFFFFFFFFFFFFFFFFFFF MUL NOT AND SWAP1 DUP4 PUSH20 0xFFFFFFFFFFFFFFFFFFFFFFFFFFFFFFFFFFFFFFFF AND MUL OR SWAP1 SSTORE POP POP POP PUSH3 0x257 JUMP JUMPDEST PUSH1 0x0 PUSH3 0x11A PUSH3 0x11F PUSH1 0x20 SHL PUSH1 0x20 SHR JUMP JUMPDEST SWAP1 POP SWAP1 JUMP JUMPDEST PUSH1 0x0 PUSH3 0x132 CALLER PUSH3 0x164 PUSH1 0x20 SHL PUSH1 0x20 SHR JUMP JUMPDEST ISZERO PUSH3 0x148 JUMPI PUSH1 0x14 CALLDATASIZE SUB CALLDATALOAD PUSH1 0x60 SHR SWAP1 POP PUSH3 0x160 JUMP JUMPDEST PUSH3 0x158 PUSH3 0x19E PUSH1 0x20 SHL PUSH1 0x20 SHR JUMP JUMPDEST SWAP1 POP PUSH3 0x161 JUMP JUMPDEST JUMPDEST SWAP1 JUMP JUMPDEST PUSH1 0x0 PUSH1 0x80 MLOAD PUSH20 0xFFFFFFFFFFFFFFFFFFFFFFFFFFFFFFFFFFFFFFFF AND DUP3 PUSH20 0xFFFFFFFFFFFFFFFFFFFFFFFFFFFFFFFFFFFFFFFF AND EQ SWAP1 POP SWAP2 SWAP1 POP JUMP JUMPDEST PUSH1 0x0 CALLER SWAP1 POP SWAP1 JUMP JUMPDEST PUSH1 0x0 DUP1 REVERT JUMPDEST PUSH1 0x0 PUSH20 0xFFFFFFFFFFFFFFFFFFFFFFFFFFFFFFFFFFFFFFFF DUP3 AND SWAP1 POP SWAP2 SWAP1 POP JUMP JUMPDEST PUSH1 0x0 PUSH3 0x1D8 DUP3 PUSH3 0x1AB JUMP JUMPDEST SWAP1 POP SWAP2 SWAP1 POP JUMP JUMPDEST PUSH3 0x1EA DUP2 PUSH3 0x1CB JUMP JUMPDEST DUP2 EQ PUSH3 0x1F6 JUMPI PUSH1 0x0 DUP1 REVERT JUMPDEST POP JUMP JUMPDEST PUSH1 0x0 DUP2 MLOAD SWAP1 POP PUSH3 0x20A DUP2 PUSH3 0x1DF JUMP JUMPDEST SWAP3 SWAP2 POP POP JUMP JUMPDEST PUSH1 0x0 DUP1 PUSH1 0x40 DUP4 DUP6 SUB SLT ISZERO PUSH3 0x22A JUMPI PUSH3 0x229 PUSH3 0x1A6 JUMP JUMPDEST JUMPDEST PUSH1 0x0 PUSH3 0x23A DUP6 DUP3 DUP7 ADD PUSH3 0x1F9 JUMP JUMPDEST SWAP3 POP POP PUSH1 0x20 PUSH3 0x24D DUP6 DUP3 DUP7 ADD PUSH3 0x1F9 JUMP JUMPDEST SWAP2 POP POP SWAP3 POP SWAP3 SWAP1 POP JUMP JUMPDEST PUSH1 0x80 MLOAD PUSH2 0x16E3 PUSH3 0x273 PUSH1 0x0 CODECOPY PUSH1 0x0 PUSH2 0x6F8 ADD MSTORE PUSH2 0x16E3 PUSH1 0x0 RETURN INVALID PUSH1 0x80 PUSH1 0x40 MSTORE CALLVALUE DUP1 ISZERO PUSH2 0x10 JUMPI PUSH1 0x0 DUP1 REVERT JUMPDEST POP PUSH1 0x4 CALLDATASIZE LT PUSH2 0x9E JUMPI PUSH1 0x0 CALLDATALOAD PUSH1 0xE0 SHR DUP1 PUSH4 0x754ED83A GT PUSH2 0x66 JUMPI DUP1 PUSH4 0x754ED83A EQ PUSH2 0x18A JUMPI DUP1 PUSH4 0x86D6282C EQ PUSH2 0x1A8 JUMPI DUP1 PUSH4 0x884C3006 EQ PUSH2 0x1C4 JUMPI DUP1 PUSH4 0xF595B8B6 EQ PUSH2 0x1F6 JUMPI DUP1 PUSH4 0xF851A440 EQ PUSH2 0x212 JUMPI PUSH2 0x9E JUMP JUMPDEST DUP1 PUSH4 0x99E4133 EQ PUSH2 0xA3 JUMPI DUP1 PUSH4 0x4C76114E EQ PUSH2 0xC1 JUMPI DUP1 PUSH4 0x5205F112 EQ PUSH2 0xF1 JUMPI DUP1 PUSH4 0x572B6C05 EQ PUSH2 0x12A JUMPI DUP1 PUSH4 0x71EF991E EQ PUSH2 0x15A JUMPI JUMPDEST PUSH1 0x0 DUP1 REVERT JUMPDEST PUSH2 0xAB PUSH2 0x230 JUMP JUMPDEST PUSH1 0x40 MLOAD PUSH2 0xB8 SWAP2 SWAP1 PUSH2 0xEB7 JUMP JUMPDEST PUSH1 0x40 MLOAD DUP1 SWAP2 SUB SWAP1 RETURN JUMPDEST PUSH2 0xDB PUSH1 0x4 DUP1 CALLDATASIZE SUB DUP2 ADD SWAP1 PUSH2 0xD6 SWAP2 SWAP1 PUSH2 0xF7D JUMP JUMPDEST PUSH2 0x256 JUMP JUMPDEST PUSH1 0x40 MLOAD PUSH2 0xE8 SWAP2 SWAP1 PUSH2 0x1023 JUMP JUMPDEST PUSH1 0x40 MLOAD DUP1 SWAP2 SUB SWAP1 RETURN JUMPDEST PUSH2 0x10B PUSH1 0x4 DUP1 CALLDATASIZE SUB DUP2 ADD SWAP1 PUSH2 0x106 SWAP2 SWAP1 PUSH2 0x106A JUMP JUMPDEST PUSH2 0x653 JUMP JUMPDEST PUSH1 0x40 MLOAD PUSH2 0x121 SWAP11 SWAP10 SWAP9 SWAP8 SWAP7 SWAP6 SWAP5 SWAP4 SWAP3 SWAP2 SWAP1 PUSH2 0x10C1 JUMP JUMPDEST PUSH1 0x40 MLOAD DUP1 SWAP2 SUB SWAP1 RETURN JUMPDEST PUSH2 0x144 PUSH1 0x4 DUP1 CALLDATASIZE SUB DUP2 ADD SWAP1 PUSH2 0x13F SWAP2 SWAP1 PUSH2 0x115D JUMP JUMPDEST PUSH2 0x6F4 JUMP JUMPDEST PUSH1 0x40 MLOAD PUSH2 0x151 SWAP2 SWAP1 PUSH2 0x118A JUMP JUMPDEST PUSH1 0x40 MLOAD DUP1 SWAP2 SUB SWAP1 RETURN JUMPDEST PUSH2 0x174 PUSH1 0x4 DUP1 CALLDATASIZE SUB DUP2 ADD SWAP1 PUSH2 0x16F SWAP2 SWAP1 PUSH2 0x11A5 JUMP JUMPDEST PUSH2 0x74C JUMP JUMPDEST PUSH1 0x40 MLOAD PUSH2 0x181 SWAP2 SWAP1 PUSH2 0x1023 JUMP JUMPDEST PUSH1 0x40 MLOAD DUP1 SWAP2 SUB SWAP1 RETURN JUMPDEST PUSH2 0x192 PUSH2 0xA03 JUMP JUMPDEST PUSH1 0x40 MLOAD PUSH2 0x19F SWAP2 SWAP1 PUSH2 0x1023 JUMP JUMPDEST PUSH1 0x40 MLOAD DUP1 SWAP2 SUB SWAP1 RETURN JUMPDEST PUSH2 0x1C2 PUSH1 0x4 DUP1 CALLDATASIZE SUB DUP2 ADD SWAP1 PUSH2 0x1BD SWAP2 SWAP1 PUSH2 0x106A JUMP JUMPDEST PUSH2 0xA09 JUMP JUMPDEST STOP JUMPDEST PUSH2 0x1DE PUSH1 0x4 DUP1 CALLDATASIZE SUB DUP2 ADD SWAP1 PUSH2 0x1D9 SWAP2 SWAP1 PUSH2 0x106A JUMP JUMPDEST PUSH2 0xBCF JUMP JUMPDEST PUSH1 0x40 MLOAD PUSH2 0x1ED SWAP4 SWAP3 SWAP2 SWAP1 PUSH2 0x127E JUMP JUMPDEST PUSH1 0x40 MLOAD DUP1 SWAP2 SUB SWAP1 RETURN JUMPDEST PUSH2 0x210 PUSH1 0x4 DUP1 CALLDATASIZE SUB DUP2 ADD SWAP1 PUSH2 0x20B SWAP2 SWAP1 PUSH2 0x106A JUMP JUMPDEST PUSH2 0xC41 JUMP JUMPDEST STOP JUMPDEST PUSH2 0x21A PUSH2 0xE07 JUMP JUMPDEST PUSH1 0x40 MLOAD PUSH2 0x227 SWAP2 SWAP1 PUSH2 0xEB7 JUMP JUMPDEST PUSH1 0x40 MLOAD DUP1 SWAP2 SUB SWAP1 RETURN JUMPDEST PUSH1 0x4 PUSH1 0x0 SWAP1 SLOAD SWAP1 PUSH2 0x100 EXP SWAP1 DIV PUSH20 0xFFFFFFFFFFFFFFFFFFFFFFFFFFFFFFFFFFFFFFFF AND DUP2 JUMP JUMPDEST PUSH1 0x0 PUSH1 0x4 PUSH1 0x0 SWAP1 SLOAD SWAP1 PUSH2 0x100 EXP SWAP1 DIV PUSH20 0xFFFFFFFFFFFFFFFFFFFFFFFFFFFFFFFFFFFFFFFF AND PUSH20 0xFFFFFFFFFFFFFFFFFFFFFFFFFFFFFFFFFFFFFFFF AND PUSH2 0x299 PUSH2 0xE2D JUMP JUMPDEST PUSH20 0xFFFFFFFFFFFFFFFFFFFFFFFFFFFFFFFFFFFFFFFF AND EQ PUSH2 0x2EF JUMPI PUSH1 0x40 MLOAD PUSH32 0x8C379A000000000000000000000000000000000000000000000000000000000 DUP2 MSTORE PUSH1 0x4 ADD PUSH2 0x2E6 SWAP1 PUSH2 0x1312 JUMP JUMPDEST PUSH1 0x40 MLOAD DUP1 SWAP2 SUB SWAP1 REVERT JUMPDEST PUSH1 0x0 PUSH1 0x1 PUSH1 0x0 DUP2 SLOAD DUP1 SWAP3 SWAP2 SWAP1 PUSH2 0x304 SWAP1 PUSH2 0x1361 JUMP JUMPDEST SWAP2 SWAP1 POP SSTORE SWAP1 POP PUSH1 0x0 DUP4 PUSH12 0xFFFFFFFFFFFFFFFFFFFFFFFF AND DUP6 PUSH12 0xFFFFFFFFFFFFFFFFFFFFFFFF AND DUP8 PUSH12 0xFFFFFFFFFFFFFFFFFFFFFFFF AND PUSH2 0x343 SWAP2 SWAP1 PUSH2 0x13A9 JUMP JUMPDEST PUSH2 0x34D SWAP2 SWAP1 PUSH2 0x13A9 JUMP JUMPDEST SWAP1 POP PUSH1 0x40 MLOAD DUP1 PUSH2 0x140 ADD PUSH1 0x40 MSTORE DUP1 DUP11 DUP2 MSTORE PUSH1 0x20 ADD DUP3 DUP2 MSTORE PUSH1 0x20 ADD DUP10 PUSH20 0xFFFFFFFFFFFFFFFFFFFFFFFFFFFFFFFFFFFFFFFF AND DUP2 MSTORE PUSH1 0x20 ADD DUP9 PUSH20 0xFFFFFFFFFFFFFFFFFFFFFFFFFFFFFFFFFFFFFFFF AND DUP2 MSTORE PUSH1 0x20 ADD PUSH1 0x0 ISZERO ISZERO DUP2 MSTORE PUSH1 0x20 ADD PUSH1 0x0 DUP1 SHL DUP2 MSTORE PUSH1 0x20 ADD PUSH1 0x0 DUP1 SHL DUP2 MSTORE PUSH1 0x20 ADD PUSH1 0x0 DUP2 MSTORE PUSH1 0x20 ADD PUSH1 0x0 DUP2 MSTORE PUSH1 0x20 ADD PUSH1 0x0 DUP2 MSTORE POP PUSH1 0x0 DUP1 DUP5 DUP2 MSTORE PUSH1 0x20 ADD SWAP1 DUP2 MSTORE PUSH1 0x20 ADD PUSH1 0x0 KECCAK256 PUSH1 0x0 DUP3 ADD MLOAD DUP2 PUSH1 0x0 ADD SSTORE PUSH1 0x20 DUP3 ADD MLOAD DUP2 PUSH1 0x1 ADD SSTORE PUSH1 0x40 DUP3 ADD MLOAD DUP2 PUSH1 0x2 ADD PUSH1 0x0 PUSH2 0x100 EXP DUP2 SLOAD DUP2 PUSH20 0xFFFFFFFFFFFFFFFFFFFFFFFFFFFFFFFFFFFFFFFF MUL NOT AND SWAP1 DUP4 PUSH20 0xFFFFFFFFFFFFFFFFFFFFFFFFFFFFFFFFFFFFFFFF AND MUL OR SWAP1 SSTORE POP PUSH1 0x60 DUP3 ADD MLOAD DUP2 PUSH1 0x3 ADD PUSH1 0x0 PUSH2 0x100 EXP DUP2 SLOAD DUP2 PUSH20 0xFFFFFFFFFFFFFFFFFFFFFFFFFFFFFFFFFFFFFFFF MUL NOT AND SWAP1 DUP4 PUSH20 0xFFFFFFFFFFFFFFFFFFFFFFFFFFFFFFFFFFFFFFFF AND MUL OR SWAP1 SSTORE POP PUSH1 0x80 DUP3 ADD MLOAD DUP2 PUSH1 0x3 ADD PUSH1 0x14 PUSH2 0x100 EXP DUP2 SLOAD DUP2 PUSH1 0xFF MUL NOT AND SWAP1 DUP4 ISZERO ISZERO MUL OR SWAP1 SSTORE POP PUSH1 0xA0 DUP3 ADD MLOAD DUP2 PUSH1 0x4 ADD SSTORE PUSH1 0xC0 DUP3 ADD MLOAD DUP2 PUSH1 0x5 ADD SSTORE PUSH1 0xE0 DUP3 ADD MLOAD DUP2 PUSH1 0x6 ADD SSTORE PUSH2 0x100 DUP3 ADD MLOAD DUP2 PUSH1 0x7 ADD SSTORE PUSH2 0x120 DUP3 ADD MLOAD DUP2 PUSH1 0x8 ADD SSTORE SWAP1 POP POP PUSH1 0x40 MLOAD DUP1 PUSH1 0x60 ADD PUSH1 0x40 MSTORE DUP1 DUP8 PUSH12 0xFFFFFFFFFFFFFFFFFFFFFFFF AND DUP2 MSTORE PUSH1 0x20 ADD DUP7 PUSH12 0xFFFFFFFFFFFFFFFFFFFFFFFF AND DUP2 MSTORE PUSH1 0x20 ADD DUP6 PUSH12 0xFFFFFFFFFFFFFFFFFFFFFFFF AND DUP2 MSTORE POP PUSH1 0x3 PUSH1 0x0 DUP5 DUP2 MSTORE PUSH1 0x20 ADD SWAP1 DUP2 MSTORE PUSH1 0x20 ADD PUSH1 0x0 KECCAK256 PUSH1 0x0 DUP3 ADD MLOAD DUP2 PUSH1 0x0 ADD PUSH1 0x0 PUSH2 0x100 EXP DUP2 SLOAD DUP2 PUSH12 0xFFFFFFFFFFFFFFFFFFFFFFFF MUL NOT AND SWAP1 DUP4 PUSH12 0xFFFFFFFFFFFFFFFFFFFFFFFF AND MUL OR SWAP1 SSTORE POP PUSH1 0x20 DUP3 ADD MLOAD DUP2 PUSH1 0x0 ADD PUSH1 0xC PUSH2 0x100 EXP DUP2 SLOAD DUP2 PUSH12 0xFFFFFFFFFFFFFFFFFFFFFFFF MUL NOT AND SWAP1 DUP4 PUSH12 0xFFFFFFFFFFFFFFFFFFFFFFFF AND MUL OR SWAP1 SSTORE POP PUSH1 0x40 DUP3 ADD MLOAD DUP2 PUSH1 0x1 ADD PUSH1 0x0 PUSH2 0x100 EXP DUP2 SLOAD DUP2 PUSH12 0xFFFFFFFFFFFFFFFFFFFFFFFF MUL NOT AND SWAP1 DUP4 PUSH12 0xFFFFFFFFFFFFFFFFFFFFFFFF AND MUL OR SWAP1 SSTORE POP SWAP1 POP POP DUP7 PUSH20 0xFFFFFFFFFFFFFFFFFFFFFFFFFFFFFFFFFFFFFFFF AND DUP9 PUSH20 0xFFFFFFFFFFFFFFFFFFFFFFFFFFFFFFFFFFFFFFFF AND DUP4 PUSH32 0x646A0B34353DBD93EC0F8CD3F3723725C891ECA95F19E17AE5F8A7A5EDB8BE44 DUP13 DUP11 DUP11 DUP11 PUSH1 0x40 MLOAD PUSH2 0x63C SWAP5 SWAP4 SWAP3 SWAP2 SWAP1 PUSH2 0x13DD JUMP JUMPDEST PUSH1 0x40 MLOAD DUP1 SWAP2 SUB SWAP1 LOG4 DUP2 SWAP3 POP POP POP SWAP7 SWAP6 POP POP POP POP POP POP JUMP JUMPDEST PUSH1 0x0 PUSH1 0x20 MSTORE DUP1 PUSH1 0x0 MSTORE PUSH1 0x40 PUSH1 0x0 KECCAK256 PUSH1 0x0 SWAP2 POP SWAP1 POP DUP1 PUSH1 0x0 ADD SLOAD SWAP1 DUP1 PUSH1 0x1 ADD SLOAD SWAP1 DUP1 PUSH1 0x2 ADD PUSH1 0x0 SWAP1 SLOAD SWAP1 PUSH2 0x100 EXP SWAP1 DIV PUSH20 0xFFFFFFFFFFFFFFFFFFFFFFFFFFFFFFFFFFFFFFFF AND SWAP1 DUP1 PUSH1 0x3 ADD PUSH1 0x0 SWAP1 SLOAD SWAP1 PUSH2 0x100 EXP SWAP1 DIV PUSH20 0xFFFFFFFFFFFFFFFFFFFFFFFFFFFFFFFFFFFFFFFF AND SWAP1 DUP1 PUSH1 0x3 ADD PUSH1 0x14 SWAP1 SLOAD SWAP1 PUSH2 0x100 EXP SWAP1 DIV PUSH1 0xFF AND SWAP1 DUP1 PUSH1 0x4 ADD SLOAD SWAP1 DUP1 PUSH1 0x5 ADD SLOAD SWAP1 DUP1 PUSH1 0x6 ADD SLOAD SWAP1 DUP1 PUSH1 0x7 ADD SLOAD SWAP1 DUP1 PUSH1 0x8 ADD SLOAD SWAP1 POP DUP11 JUMP JUMPDEST PUSH1 0x0 PUSH32 0x0 PUSH20 0xFFFFFFFFFFFFFFFFFFFFFFFFFFFFFFFFFFFFFFFF AND DUP3 PUSH20 0xFFFFFFFFFFFFFFFFFFFFFFFFFFFFFFFFFFFFFFFF AND EQ SWAP1 POP SWAP2 SWAP1 POP JUMP JUMPDEST PUSH1 0x0 PUSH1 0x2 PUSH1 0x0 SWAP1 SLOAD SWAP1 PUSH2 0x100 EXP SWAP1 DIV PUSH20 0xFFFFFFFFFFFFFFFFFFFFFFFFFFFFFFFFFFFFFFFF AND PUSH20 0xFFFFFFFFFFFFFFFFFFFFFFFFFFFFFFFFFFFFFFFF AND PUSH2 0x78F PUSH2 0xE2D JUMP JUMPDEST PUSH20 0xFFFFFFFFFFFFFFFFFFFFFFFFFFFFFFFFFFFFFFFF AND EQ PUSH2 0x7E5 JUMPI PUSH1 0x40 MLOAD PUSH32 0x8C379A000000000000000000000000000000000000000000000000000000000 DUP2 MSTORE PUSH1 0x4 ADD PUSH2 0x7DC SWAP1 PUSH2 0x146E JUMP JUMPDEST PUSH1 0x40 MLOAD DUP1 SWAP2 SUB SWAP1 REVERT JUMPDEST PUSH1 0x0 PUSH1 0x1 PUSH1 0x0 DUP2 SLOAD DUP1 SWAP3 SWAP2 SWAP1 PUSH2 0x7FA SWAP1 PUSH2 0x1361 JUMP JUMPDEST SWAP2 SWAP1 POP SSTORE SWAP1 POP PUSH1 0x40 MLOAD DUP1 PUSH2 0x140 ADD PUSH1 0x40 MSTORE DUP1 DUP13 DUP2 MSTORE PUSH1 0x20 ADD DUP12 DUP2 MSTORE PUSH1 0x20 ADD DUP11 PUSH20 0xFFFFFFFFFFFFFFFFFFFFFFFFFFFFFFFFFFFFFFFF AND DUP2 MSTORE PUSH1 0x20 ADD DUP10 PUSH20 0xFFFFFFFFFFFFFFFFFFFFFFFFFFFFFFFFFFFFFFFF AND DUP2 MSTORE PUSH1 0x20 ADD PUSH1 0x0 ISZERO ISZERO DUP2 MSTORE PUSH1 0x20 ADD DUP9 DUP2 MSTORE PUSH1 0x20 ADD DUP8 DUP2 MSTORE PUSH1 0x20 ADD DUP7 DUP2 MSTORE PUSH1 0x20 ADD DUP6 DUP2 MSTORE PUSH1 0x20 ADD DUP5 DUP2 MSTORE POP PUSH1 0x0 DUP1 DUP4 DUP2 MSTORE PUSH1 0x20 ADD SWAP1 DUP2 MSTORE PUSH1 0x20 ADD PUSH1 0x0 KECCAK256 PUSH1 0x0 DUP3 ADD MLOAD DUP2 PUSH1 0x0 ADD SSTORE PUSH1 0x20 DUP3 ADD MLOAD DUP2 PUSH1 0x1 ADD SSTORE PUSH1 0x40 DUP3 ADD MLOAD DUP2 PUSH1 0x2 ADD PUSH1 0x0 PUSH2 0x100 EXP DUP2 SLOAD DUP2 PUSH20 0xFFFFFFFFFFFFFFFFFFFFFFFFFFFFFFFFFFFFFFFF MUL NOT AND SWAP1 DUP4 PUSH20 0xFFFFFFFFFFFFFFFFFFFFFFFFFFFFFFFFFFFFFFFF AND MUL OR SWAP1 SSTORE POP PUSH1 0x60 DUP3 ADD MLOAD DUP2 PUSH1 0x3 ADD PUSH1 0x0 PUSH2 0x100 EXP DUP2 SLOAD DUP2 PUSH20 0xFFFFFFFFFFFFFFFFFFFFFFFFFFFFFFFFFFFFFFFF MUL NOT AND SWAP1 DUP4 PUSH20 0xFFFFFFFFFFFFFFFFFFFFFFFFFFFFFFFFFFFFFFFF AND MUL OR SWAP1 SSTORE POP PUSH1 0x80 DUP3 ADD MLOAD DUP2 PUSH1 0x3 ADD PUSH1 0x14 PUSH2 0x100 EXP DUP2 SLOAD DUP2 PUSH1 0xFF MUL NOT AND SWAP1 DUP4 ISZERO ISZERO MUL OR SWAP1 SSTORE POP PUSH1 0xA0 DUP3 ADD MLOAD DUP2 PUSH1 0x4 ADD SSTORE PUSH1 0xC0 DUP3 ADD MLOAD DUP2 PUSH1 0x5 ADD SSTORE PUSH1 0xE0 DUP3 ADD MLOAD DUP2 PUSH1 0x6 ADD SSTORE PUSH2 0x100 DUP3 ADD MLOAD DUP2 PUSH1 0x7 ADD SSTORE PUSH2 0x120 DUP3 ADD MLOAD DUP2 PUSH1 0x8 ADD SSTORE SWAP1 POP POP DUP8 PUSH20 0xFFFFFFFFFFFFFFFFFFFFFFFFFFFFFFFFFFFFFFFF AND DUP10 PUSH20 0xFFFFFFFFFFFFFFFFFFFFFFFFFFFFFFFFFFFFFFFF AND DUP3 PUSH32 0xF57FC3A40D17C0710C18167AD458C18988B72BA6E7D6F5791A73B4022CBB6AA4 DUP15 DUP15 DUP13 DUP13 DUP13 DUP13 DUP13 PUSH1 0x40 MLOAD PUSH2 0x9EA SWAP8 SWAP7 SWAP6 SWAP5 SWAP4 SWAP3 SWAP2 SWAP1 PUSH2 0x148E JUMP JUMPDEST PUSH1 0x40 MLOAD DUP1 SWAP2 SUB SWAP1 LOG4 DUP1 SWAP2 POP POP SWAP10 SWAP9 POP POP POP POP POP POP POP POP POP JUMP JUMPDEST PUSH1 0x1 SLOAD DUP2 JUMP JUMPDEST PUSH1 0x0 DUP1 PUSH1 0x0 DUP4 DUP2 MSTORE PUSH1 0x20 ADD SWAP1 DUP2 MSTORE PUSH1 0x20 ADD PUSH1 0x0 KECCAK256 SWAP1 POP PUSH1 0x0 PUSH2 0xA29 PUSH2 0xE2D JUMP JUMPDEST SWAP1 POP DUP2 PUSH1 0x2 ADD PUSH1 0x0 SWAP1 SLOAD SWAP1 PUSH2 0x100 EXP SWAP1 DIV PUSH20 0xFFFFFFFFFFFFFFFFFFFFFFFFFFFFFFFFFFFFFFFF AND PUSH20 0xFFFFFFFFFFFFFFFFFFFFFFFFFFFFFFFFFFFFFFFF AND DUP2 PUSH20 0xFFFFFFFFFFFFFFFFFFFFFFFFFFFFFFFFFFFFFFFF AND EQ DUP1 PUSH2 0xAD8 JUMPI POP DUP2 PUSH1 0x3 ADD PUSH1 0x0 SWAP1 SLOAD SWAP1 PUSH2 0x100 EXP SWAP1 DIV PUSH20 0xFFFFFFFFFFFFFFFFFFFFFFFFFFFFFFFFFFFFFFFF AND PUSH20 0xFFFFFFFFFFFFFFFFFFFFFFFFFFFFFFFFFFFFFFFF AND DUP2 PUSH20 0xFFFFFFFFFFFFFFFFFFFFFFFFFFFFFFFFFFFFFFFF AND EQ JUMPDEST PUSH2 0xB17 JUMPI PUSH1 0x40 MLOAD PUSH32 0x8C379A000000000000000000000000000000000000000000000000000000000 DUP2 MSTORE PUSH1 0x4 ADD PUSH2 0xB0E SWAP1 PUSH2 0x1549 JUMP JUMPDEST PUSH1 0x40 MLOAD DUP1 SWAP2 SUB SWAP1 REVERT JUMPDEST DUP2 PUSH1 0x3 ADD PUSH1 0x14 SWAP1 SLOAD SWAP1 PUSH2 0x100 EXP SWAP1 DIV PUSH1 0xFF AND ISZERO PUSH2 0xB69 JUMPI PUSH1 0x40 MLOAD PUSH32 0x8C379A000000000000000000000000000000000000000000000000000000000 DUP2 MSTORE PUSH1 0x4 ADD PUSH2 0xB60 SWAP1 PUSH2 0x15B5 JUMP JUMPDEST PUSH1 0x40 MLOAD DUP1 SWAP2 SUB SWAP1 REVERT JUMPDEST PUSH1 0x1 DUP3 PUSH1 0x3 ADD PUSH1 0x14 PUSH2 0x100 EXP DUP2 SLOAD DUP2 PUSH1 0xFF MUL NOT AND SWAP1 DUP4 ISZERO ISZERO MUL OR SWAP1 SSTORE POP DUP1 PUSH20 0xFFFFFFFFFFFFFFFFFFFFFFFFFFFFFFFFFFFFFFFF AND DUP4 PUSH32 0x67A3AC0F918725A518D5B5E6EA658C782A39CC66833F21F02ED5C9FF36D3134D PUSH1 0x40 MLOAD PUSH1 0x40 MLOAD DUP1 SWAP2 SUB SWAP1 LOG3 POP POP POP JUMP JUMPDEST PUSH1 0x3 PUSH1 0x20 MSTORE DUP1 PUSH1 0x0 MSTORE PUSH1 0x40 PUSH1 0x0 KECCAK256 PUSH1 0x0 SWAP2 POP SWAP1 POP DUP1 PUSH1 0x0 ADD PUSH1 0x0 SWAP1 SLOAD SWAP1 PUSH2 0x100 EXP SWAP1 DIV PUSH12 0xFFFFFFFFFFFFFFFFFFFFFFFF AND SWAP1 DUP1 PUSH1 0x0 ADD PUSH1 0xC SWAP1 SLOAD SWAP1 PUSH2 0x100 EXP SWAP1 DIV PUSH12 0xFFFFFFFFFFFFFFFFFFFFFFFF AND SWAP1 DUP1 PUSH1 0x1 ADD PUSH1 0x0 SWAP1 SLOAD SWAP1 PUSH2 0x100 EXP SWAP1 DIV PUSH12 0xFFFFFFFFFFFFFFFFFFFFFFFF AND SWAP1 POP DUP4 JUMP JUMPDEST PUSH1 0x0 DUP1 PUSH1 0x0 DUP4 DUP2 MSTORE PUSH1 0x20 ADD SWAP1 DUP2 MSTORE PUSH1 0x20 ADD PUSH1 0x0 KECCAK256 SWAP1 POP PUSH1 0x0 PUSH2 0xC61 PUSH2 0xE2D JUMP JUMPDEST SWAP1 POP DUP2 PUSH1 0x2 ADD PUSH1 0x0 SWAP1 SLOAD SWAP1 PUSH2 0x100 EXP SWAP1 DIV PUSH20 0xFFFFFFFFFFFFFFFFFFFFFFFFFFFFFFFFFFFFFFFF AND PUSH20 0xFFFFFFFFFFFFFFFFFFFFFFFFFFFFFFFFFFFFFFFF AND DUP2 PUSH20 0xFFFFFFFFFFFFFFFFFFFFFFFFFFFFFFFFFFFFFFFF AND EQ DUP1 PUSH2 0xD10 JUMPI POP DUP2 PUSH1 0x3 ADD PUSH1 0x0 SWAP1 SLOAD SWAP1 PUSH2 0x100 EXP SWAP1 DIV PUSH20 0xFFFFFFFFFFFFFFFFFFFFFFFFFFFFFFFFFFFFFFFF AND PUSH20 0xFFFFFFFFFFFFFFFFFFFFFFFFFFFFFFFFFFFFFFFF AND DUP2 PUSH20 0xFFFFFFFFFFFFFFFFFFFFFFFFFFFFFFFFFFFFFFFF AND EQ JUMPDEST PUSH2 0xD4F JUMPI PUSH1 0x40 MLOAD PUSH32 0x8C379A000000000000000000000000000000000000000000000000000000000 DUP2 MSTORE PUSH1 0x4 ADD PUSH2 0xD46 SWAP1 PUSH2 0x1621 JUMP JUMPDEST PUSH1 0x40 MLOAD DUP1 SWAP2 SUB SWAP1 REVERT JUMPDEST DUP2 PUSH1 0x3 ADD PUSH1 0x14 SWAP1 SLOAD SWAP1 PUSH2 0x100 EXP SWAP1 DIV PUSH1 0xFF AND ISZERO PUSH2 0xDA1 JUMPI PUSH1 0x40 MLOAD PUSH32 0x8C379A000000000000000000000000000000000000000000000000000000000 DUP2 MSTORE PUSH1 0x4 ADD PUSH2 0xD98 SWAP1 PUSH2 0x168D JUMP JUMPDEST PUSH1 0x40 MLOAD DUP1 SWAP2 SUB SWAP1 REVERT JUMPDEST PUSH1 0x1 DUP3 PUSH1 0x3 ADD PUSH1 0x14 PUSH2 0x100 EXP DUP2 SLOAD DUP2 PUSH1 0xFF MUL NOT AND SWAP1 DUP4 ISZERO ISZERO MUL OR SWAP1 SSTORE POP DUP1 PUSH20 0xFFFFFFFFFFFFFFFFFFFFFFFFFFFFFFFFFFFFFFFF AND DUP4 PUSH32 0x7793040BA868CE7AE6C58F6EEB426D2680FDF42E42BCAEE16BFCAF4269DBA995 PUSH1 0x40 MLOAD PUSH1 0x40 MLOAD DUP1 SWAP2 SUB SWAP1 LOG3 POP POP POP JUMP JUMPDEST PUSH1 0x2 PUSH1 0x0 SWAP1 SLOAD SWAP1 PUSH2 0x100 EXP SWAP1 DIV PUSH20 0xFFFFFFFFFFFFFFFFFFFFFFFFFFFFFFFFFFFFFFFF AND DUP2 JUMP JUMPDEST PUSH1 0x0 PUSH2 0xE37 PUSH2 0xE3C JUMP JUMPDEST SWAP1 POP SWAP1 JUMP JUMPDEST PUSH1 0x0 PUSH2 0xE47 CALLER PUSH2 0x6F4 JUMP JUMPDEST ISZERO PUSH2 0xE5B JUMPI PUSH1 0x14 CALLDATASIZE SUB CALLDATALOAD PUSH1 0x60 SHR SWAP1 POP PUSH2 0xE6A JUMP JUMPDEST PUSH2 0xE63 PUSH2 0xE6E JUMP JUMPDEST SWAP1 POP PUSH2 0xE6B JUMP JUMPDEST JUMPDEST SWAP1 JUMP JUMPDEST PUSH1 0x0 CALLER SWAP1 POP SWAP1 JUMP JUMPDEST PUSH1 0x0 PUSH20 0xFFFFFFFFFFFFFFFFFFFFFFFFFFFFFFFFFFFFFFFF DUP3 AND SWAP1 POP SWAP2 SWAP1 POP JUMP JUMPDEST PUSH1 0x0 PUSH2 0xEA1 DUP3 PUSH2 0xE76 JUMP JUMPDEST SWAP1 POP SWAP2 SWAP1 POP JUMP JUMPDEST PUSH2 0xEB1 DUP2 PUSH2 0xE96 JUMP JUMPDEST DUP3 MSTORE POP POP JUMP JUMPDEST PUSH1 0x0 PUSH1 0x20 DUP3 ADD SWAP1 POP PUSH2 0xECC PUSH1 0x0 DUP4 ADD DUP5 PUSH2 0xEA8 JUMP JUMPDEST SWAP3 SWAP2 POP POP JUMP JUMPDEST PUSH1 0x0 DUP1 REVERT JUMPDEST PUSH1 0x0 DUP2 SWAP1 POP SWAP2 SWAP1 POP JUMP JUMPDEST PUSH2 0xEEA DUP2 PUSH2 0xED7 JUMP JUMPDEST DUP2 EQ PUSH2 0xEF5 JUMPI PUSH1 0x0 DUP1 REVERT JUMPDEST POP JUMP JUMPDEST PUSH1 0x0 DUP2 CALLDATALOAD SWAP1 POP PUSH2 0xF07 DUP2 PUSH2 0xEE1 JUMP JUMPDEST SWAP3 SWAP2 POP POP JUMP JUMPDEST PUSH2 0xF16 DUP2 PUSH2 0xE96 JUMP JUMPDEST DUP2 EQ PUSH2 0xF21 JUMPI PUSH1 0x0 DUP1 REVERT JUMPDEST POP JUMP JUMPDEST PUSH1 0x0 DUP2 CALLDATALOAD SWAP1 POP PUSH2 0xF33 DUP2 PUSH2 0xF0D JUMP JUMPDEST SWAP3 SWAP2 POP POP JUMP JUMPDEST PUSH1 0x0 PUSH12 0xFFFFFFFFFFFFFFFFFFFFFFFF DUP3 AND SWAP1 POP SWAP2 SWAP1 POP JUMP JUMPDEST PUSH2 0xF5A DUP2 PUSH2 0xF39 JUMP JUMPDEST DUP2 EQ PUSH2 0xF65 JUMPI PUSH1 0x0 DUP1 REVERT JUMPDEST POP JUMP JUMPDEST PUSH1 0x0 DUP2 CALLDATALOAD SWAP1 POP PUSH2 0xF77 DUP2 PUSH2 0xF51 JUMP JUMPDEST SWAP3 SWAP2 POP POP JUMP JUMPDEST PUSH1 0x0 DUP1 PUSH1 0x0 DUP1 PUSH1 0x0 DUP1 PUSH1 0xC0 DUP8 DUP10 SUB SLT ISZERO PUSH2 0xF9A JUMPI PUSH2 0xF99 PUSH2 0xED2 JUMP JUMPDEST JUMPDEST PUSH1 0x0 PUSH2 0xFA8 DUP10 DUP3 DUP11 ADD PUSH2 0xEF8 JUMP JUMPDEST SWAP7 POP POP PUSH1 0x20 PUSH2 0xFB9 DUP10 DUP3 DUP11 ADD PUSH2 0xF24 JUMP JUMPDEST SWAP6 POP POP PUSH1 0x40 PUSH2 0xFCA DUP10 DUP3 DUP11 ADD PUSH2 0xF24 JUMP JUMPDEST SWAP5 POP POP PUSH1 0x60 PUSH2 0xFDB DUP10 DUP3 DUP11 ADD PUSH2 0xF68 JUMP JUMPDEST SWAP4 POP POP PUSH1 0x80 PUSH2 0xFEC DUP10 DUP3 DUP11 ADD PUSH2 0xF68 JUMP JUMPDEST SWAP3 POP POP PUSH1 0xA0 PUSH2 0xFFD DUP10 DUP3 DUP11 ADD PUSH2 0xF68 JUMP JUMPDEST SWAP2 POP POP SWAP3 SWAP6 POP SWAP3 SWAP6 POP SWAP3 SWAP6 JUMP JUMPDEST PUSH1 0x0 DUP2 SWAP1 POP SWAP2 SWAP1 POP JUMP JUMPDEST PUSH2 0x101D DUP2 PUSH2 0x100A JUMP JUMPDEST DUP3 MSTORE POP POP JUMP JUMPDEST PUSH1 0x0 PUSH1 0x20 DUP3 ADD SWAP1 POP PUSH2 0x1038 PUSH1 0x0 DUP4 ADD DUP5 PUSH2 0x1014 JUMP JUMPDEST SWAP3 SWAP2 POP POP JUMP JUMPDEST PUSH2 0x1047 DUP2 PUSH2 0x100A JUMP JUMPDEST DUP2 EQ PUSH2 0x1052 JUMPI PUSH1 0x0 DUP1 REVERT JUMPDEST POP JUMP JUMPDEST PUSH1 0x0 DUP2 CALLDATALOAD SWAP1 POP PUSH2 0x1064 DUP2 PUSH2 0x103E JUMP JUMPDEST SWAP3 SWAP2 POP POP JUMP JUMPDEST PUSH1 0x0 PUSH1 0x20 DUP3 DUP5 SUB SLT ISZERO PUSH2 0x1080 JUMPI PUSH2 0x107F PUSH2 0xED2 JUMP JUMPDEST JUMPDEST PUSH1 0x0 PUSH2 0x108E DUP5 DUP3 DUP6 ADD PUSH2 0x1055 JUMP JUMPDEST SWAP2 POP POP SWAP3 SWAP2 POP POP JUMP JUMPDEST PUSH2 0x10A0 DUP2 PUSH2 0xED7 JUMP JUMPDEST DUP3 MSTORE POP POP JUMP JUMPDEST PUSH1 0x0 DUP2 ISZERO ISZERO SWAP1 POP SWAP2 SWAP1 POP JUMP JUMPDEST PUSH2 0x10BB DUP2 PUSH2 0x10A6 JUMP JUMPDEST DUP3 MSTORE POP POP JUMP JUMPDEST PUSH1 0x0 PUSH2 0x140 DUP3 ADD SWAP1 POP PUSH2 0x10D7 PUSH1 0x0 DUP4 ADD DUP14 PUSH2 0x1097 JUMP JUMPDEST PUSH2 0x10E4 PUSH1 0x20 DUP4 ADD DUP13 PUSH2 0x1014 JUMP JUMPDEST PUSH2 0x10F1 PUSH1 0x40 DUP4 ADD DUP12 PUSH2 0xEA8 JUMP JUMPDEST PUSH2 0x10FE PUSH1 0x60 DUP4 ADD DUP11 PUSH2 0xEA8 JUMP JUMPDEST PUSH2 0x110B PUSH1 0x80 DUP4 ADD DUP10 PUSH2 0x10B2 JUMP JUMPDEST PUSH2 0x1118 PUSH1 0xA0 DUP4 ADD DUP9 PUSH2 0x1097 JUMP JUMPDEST PUSH2 0x1125 PUSH1 0xC0 DUP4 ADD DUP8 PUSH2 0x1097 JUMP JUMPDEST PUSH2 0x1132 PUSH1 0xE0 DUP4 ADD DUP7 PUSH2 0x1014 JUMP JUMPDEST PUSH2 0x1140 PUSH2 0x100 DUP4 ADD DUP6 PUSH2 0x1014 JUMP JUMPDEST PUSH2 0x114E PUSH2 0x120 DUP4 ADD DUP5 PUSH2 0x1014 JUMP JUMPDEST SWAP12 SWAP11 POP POP POP POP POP POP POP POP POP POP POP JUMP JUMPDEST PUSH1 0x0 PUSH1 0x20 DUP3 DUP5 SUB SLT ISZERO PUSH2 0x1173 JUMPI PUSH2 0x1172 PUSH2 0xED2 JUMP JUMPDEST JUMPDEST PUSH1 0x0 PUSH2 0x1181 DUP5 DUP3 DUP6 ADD PUSH2 0xF24 JUMP JUMPDEST SWAP2 POP POP SWAP3 SWAP2 POP POP JUMP JUMPDEST PUSH1 0x0 PUSH1 0x20 DUP3 ADD SWAP1 POP PUSH2 0x119F PUSH1 0x0 DUP4 ADD DUP5 PUSH2 0x10B2 JUMP JUMPDEST SWAP3 SWAP2 POP POP JUMP JUMPDEST PUSH1 0x0 DUP1 PUSH1 0x0 DUP1 PUSH1 0x0 DUP1 PUSH1 0x0 DUP1 PUSH1 0x0 PUSH2 0x120 DUP11 DUP13 SUB SLT ISZERO PUSH2 0x11C8 JUMPI PUSH2 0x11C7 PUSH2 0xED2 JUMP JUMPDEST JUMPDEST PUSH1 0x0 PUSH2 0x11D6 DUP13 DUP3 DUP14 ADD PUSH2 0xEF8 JUMP JUMPDEST SWAP10 POP POP PUSH1 0x20 PUSH2 0x11E7 DUP13 DUP3 DUP14 ADD PUSH2 0x1055 JUMP JUMPDEST SWAP9 POP POP PUSH1 0x40 PUSH2 0x11F8 DUP13 DUP3 DUP14 ADD PUSH2 0xF24 JUMP JUMPDEST SWAP8 POP POP PUSH1 0x60 PUSH2 0x1209 DUP13 DUP3 DUP14 ADD PUSH2 0xF24 JUMP JUMPDEST SWAP7 POP POP PUSH1 0x80 PUSH2 0x121A DUP13 DUP3 DUP14 ADD PUSH2 0xEF8 JUMP JUMPDEST SWAP6 POP POP PUSH1 0xA0 PUSH2 0x122B DUP13 DUP3 DUP14 ADD PUSH2 0xEF8 JUMP JUMPDEST SWAP5 POP POP PUSH1 0xC0 PUSH2 0x123C DUP13 DUP3 DUP14 ADD PUSH2 0x1055 JUMP JUMPDEST SWAP4 POP POP PUSH1 0xE0 PUSH2 0x124D DUP13 DUP3 DUP14 ADD PUSH2 0x1055 JUMP JUMPDEST SWAP3 POP POP PUSH2 0x100 PUSH2 0x125F DUP13 DUP3 DUP14 ADD PUSH2 0x1055 JUMP JUMPDEST SWAP2 POP POP SWAP3 SWAP6 SWAP9 POP SWAP3 SWAP6 SWAP9 POP SWAP3 SWAP6 SWAP9 JUMP JUMPDEST PUSH2 0x1278 DUP2 PUSH2 0xF39 JUMP JUMPDEST DUP3 MSTORE POP POP JUMP JUMPDEST PUSH1 0x0 PUSH1 0x60 DUP3 ADD SWAP1 POP PUSH2 0x1293 PUSH1 0x0 DUP4 ADD DUP7 PUSH2 0x126F JUMP JUMPDEST PUSH2 0x12A0 PUSH1 0x20 DUP4 ADD DUP6 PUSH2 0x126F JUMP JUMPDEST PUSH2 0x12AD PUSH1 0x40 DUP4 ADD DUP5 PUSH2 0x126F JUMP JUMPDEST SWAP5 SWAP4 POP POP POP POP JUMP JUMPDEST PUSH1 0x0 DUP3 DUP3 MSTORE PUSH1 0x20 DUP3 ADD SWAP1 POP SWAP3 SWAP2 POP POP JUMP JUMPDEST PUSH32 0x457874656E6465643A2063616C6C6572206973206E6F74206261636B656E6400 PUSH1 0x0 DUP3 ADD MSTORE POP JUMP JUMPDEST PUSH1 0x0 PUSH2 0x12FC PUSH1 0x1F DUP4 PUSH2 0x12B5 JUMP JUMPDEST SWAP2 POP PUSH2 0x1307 DUP3 PUSH2 0x12C6 JUMP JUMPDEST PUSH1 0x20 DUP3 ADD SWAP1 POP SWAP2 SWAP1 POP JUMP JUMPDEST PUSH1 0x0 PUSH1 0x20 DUP3 ADD SWAP1 POP DUP2 DUP2 SUB PUSH1 0x0 DUP4 ADD MSTORE PUSH2 0x132B DUP2 PUSH2 0x12EF JUMP JUMPDEST SWAP1 POP SWAP2 SWAP1 POP JUMP JUMPDEST PUSH32 0x4E487B7100000000000000000000000000000000000000000000000000000000 PUSH1 0x0 MSTORE PUSH1 0x11 PUSH1 0x4 MSTORE PUSH1 0x24 PUSH1 0x0 REVERT JUMPDEST PUSH1 0x0 PUSH2 0x136C DUP3 PUSH2 0x100A JUMP JUMPDEST SWAP2 POP PUSH32 0xFFFFFFFFFFFFFFFFFFFFFFFFFFFFFFFFFFFFFFFFFFFFFFFFFFFFFFFFFFFFFFFF DUP3 SUB PUSH2 0x139E JUMPI PUSH2 0x139D PUSH2 0x1332 JUMP JUMPDEST JUMPDEST PUSH1 0x1 DUP3 ADD SWAP1 POP SWAP2 SWAP1 POP JUMP JUMPDEST PUSH1 0x0 PUSH2 0x13B4 DUP3 PUSH2 0x100A JUMP JUMPDEST SWAP2 POP PUSH2 0x13BF DUP4 PUSH2 0x100A JUMP JUMPDEST SWAP3 POP DUP3 DUP3 ADD SWAP1 POP DUP1 DUP3 GT ISZERO PUSH2 0x13D7 JUMPI PUSH2 0x13D6 PUSH2 0x1332 JUMP JUMPDEST JUMPDEST SWAP3 SWAP2 POP POP JUMP JUMPDEST PUSH1 0x0 PUSH1 0x80 DUP3 ADD SWAP1 POP PUSH2 0x13F2 PUSH1 0x0 DUP4 ADD DUP8 PUSH2 0x1097 JUMP JUMPDEST PUSH2 0x13FF PUSH1 0x20 DUP4 ADD DUP7 PUSH2 0x126F JUMP JUMPDEST PUSH2 0x140C PUSH1 0x40 DUP4 ADD DUP6 PUSH2 0x126F JUMP JUMPDEST PUSH2 0x1419 PUSH1 0x60 DUP4 ADD DUP5 PUSH2 0x126F JUMP JUMPDEST SWAP6 SWAP5 POP POP POP POP POP JUMP JUMPDEST PUSH32 0x52696465724C65646765723A2063616C6C6572206973206E6F742061646D696E PUSH1 0x0 DUP3 ADD MSTORE POP JUMP JUMPDEST PUSH1 0x0 PUSH2 0x1458 PUSH1 0x20 DUP4 PUSH2 0x12B5 JUMP JUMPDEST SWAP2 POP PUSH2 0x1463 DUP3 PUSH2 0x1422 JUMP JUMPDEST PUSH1 0x20 DUP3 ADD SWAP1 POP SWAP2 SWAP1 POP JUMP JUMPDEST PUSH1 0x0 PUSH1 0x20 DUP3 ADD SWAP1 POP DUP2 DUP2 SUB PUSH1 0x0 DUP4 ADD MSTORE PUSH2 0x1487 DUP2 PUSH2 0x144B JUMP JUMPDEST SWAP1 POP SWAP2 SWAP1 POP JUMP JUMPDEST PUSH1 0x0 PUSH1 0xE0 DUP3 ADD SWAP1 POP PUSH2 0x14A3 PUSH1 0x0 DUP4 ADD DUP11 PUSH2 0x1097 JUMP JUMPDEST PUSH2 0x14B0 PUSH1 0x20 DUP4 ADD DUP10 PUSH2 0x1014 JUMP JUMPDEST PUSH2 0x14BD PUSH1 0x40 DUP4 ADD DUP9 PUSH2 0x1097 JUMP JUMPDEST PUSH2 0x14CA PUSH1 0x60 DUP4 ADD DUP8 PUSH2 0x1097 JUMP JUMPDEST PUSH2 0x14D7 PUSH1 0x80 DUP4 ADD DUP7 PUSH2 0x1014 JUMP JUMPDEST PUSH2 0x14E4 PUSH1 0xA0 DUP4 ADD DUP6 PUSH2 0x1014 JUMP JUMPDEST PUSH2 0x14F1 PUSH1 0xC0 DUP4 ADD DUP5 PUSH2 0x1014 JUMP JUMPDEST SWAP9 SWAP8 POP POP POP POP POP POP POP POP JUMP JUMPDEST PUSH32 0x457874656E6465643A206E6F74207061727469636970616E7400000000000000 PUSH1 0x0 DUP3 ADD MSTORE POP JUMP JUMPDEST PUSH1 0x0 PUSH2 0x1533 PUSH1 0x19 DUP4 PUSH2 0x12B5 JUMP JUMPDEST SWAP2 POP PUSH2 0x153E DUP3 PUSH2 0x14FD JUMP JUMPDEST PUSH1 0x20 DUP3 ADD SWAP1 POP SWAP2 SWAP1 POP JUMP JUMPDEST PUSH1 0x0 PUSH1 0x20 DUP3 ADD SWAP1 POP DUP2 DUP2 SUB PUSH1 0x0 DUP4 ADD MSTORE PUSH2 0x1562 DUP2 PUSH2 0x1526 JUMP JUMPDEST SWAP1 POP SWAP2 SWAP1 POP JUMP JUMPDEST PUSH32 0x457874656E6465643A20616C7265616479206469737075746564000000000000 PUSH1 0x0 DUP3 ADD MSTORE POP JUMP JUMPDEST PUSH1 0x0 PUSH2 0x159F PUSH1 0x1A DUP4 PUSH2 0x12B5 JUMP JUMPDEST SWAP2 POP PUSH2 0x15AA DUP3 PUSH2 0x1569 JUMP JUMPDEST PUSH1 0x20 DUP3 ADD SWAP1 POP SWAP2 SWAP1 POP JUMP JUMPDEST PUSH1 0x0 PUSH1 0x20 DUP3 ADD SWAP1 POP DUP2 DUP2 SUB PUSH1 0x0 DUP4 ADD MSTORE PUSH2 0x15CE DUP2 PUSH2 0x1592 JUMP JUMPDEST SWAP1 POP SWAP2 SWAP1 POP JUMP JUMPDEST PUSH32 0x52696465724C65646765723A206E6F74207061727469636970616E7400000000 PUSH1 0x0 DUP3 ADD MSTORE POP JUMP JUMPDEST PUSH1 0x0 PUSH2 0x160B PUSH1 0x1C DUP4 PUSH2 0x12B5 JUMP JUMPDEST SWAP2 POP PUSH2 0x1616 DUP3 PUSH2 0x15D5 JUMP JUMPDEST PUSH1 0x20 DUP3 ADD SWAP1 POP SWAP2 SWAP1 POP JUMP JUMPDEST PUSH1 0x0 PUSH1 0x20 DUP3 ADD SWAP1 POP DUP2 DUP2 SUB PUSH1 0x0 DUP4 ADD MSTORE PUSH2 0x163A DUP2 PUSH2 0x15FE JUMP JUMPDEST SWAP1 POP SWAP2 SWAP1 POP JUMP JUMPDEST PUSH32 0x52696465724C65646765723A20616C7265616479206469737075746564000000 PUSH1 0x0 DUP3 ADD MSTORE POP JUMP JUMPDEST PUSH1 0x0 PUSH2 0x1677 PUSH1 0x1D DUP4 PUSH2 0x12B5 JUMP JUMPDEST SWAP2 POP PUSH2 0x1682 DUP3 PUSH2 0x1641 JUMP JUMPDEST PUSH1 0x20 DUP3 ADD SWAP1 POP SWAP2 SWAP1 POP JUMP JUMPDEST PUSH1 0x0 PUSH1 0x20 DUP3 ADD SWAP1 POP DUP2 DUP2 SUB PUSH1 0x0 DUP4 ADD MSTORE PUSH2 0x16A6 DUP2 PUSH2 0x166A JUMP JUMPDEST SWAP1 POP SWAP2 SWAP1 POP JUMP INVALID LOG2 PUSH5 0x6970667358 0x22 SLT KECCAK256 0xDF PUSH16 0xD1C7EDEDD8D558ABEBF287EC52376E8E STATICCALL 0xA9 PUSH14 0x5499536B962816495BB35B64736F PUSH13 0x63430008140033000000000000 "},"methodIdentifiers":{"admin()":"f851a440","backend()":"099e4133","dispute(uint256)":"86d6282c","disputeRide(uint256)":"f595b8b6","isTrustedForwarder(address)":"572b6c05","logRide(bytes32,address,address,uint96,uint96,uint96)":"4c76114e","logRide(bytes32,uint256,address,address,bytes32,bytes32,uint256,uint256,uint256)":"71ef991e","nextRideId()":"754ed83a","rides(uint256)":"5205f112","splits(uint256)":"884c3006"}}}}}