{
  "_format": "hh-sol-artifact-1",
  "contractName": "ExtendedRiderLedger",
  "sourceName": "contracts/RideLedger.sol",
  "abi": [
    {
      "inputs": [
        {
          "internalType": "address",
          "name": "forwarder",
          "type": "address"
        },
        {
          "internalType": "address",
          "name": "_backend",
          "type": "address"
        }
      ],
      "stateMutability": "nonpayable",
      "type": "constructor"
    },
    {
      "anonymous": false,
      "inputs": [
        {
          "indexed": true,
          "internalType": "uint256",
          "name": "rideId",
          "type": "uint256"
        },
        {
          "indexed": true,
          "internalType": "address",
          "name": "by",
          "type": "address"
        }
      ],
      "name": "DisputedSplit",
      "type": "event"
    },
    {
      "anonymous": false,
      "inputs": [
        {
          "indexed": true,
          "internalType": "uint256",
          "name": "rideId",
          "type": "uint256"
        },
        {
          "indexed": true,
          "internalType": "address",
          "name": "by",
          "type": "address"
        }
      ],
      "name": "RideDisputed",
      "type": "event"
    },
    {
      "anonymous": false,
      "inputs": [
        {
          "indexed": true,
          "internalType": "uint256",
          "name": "rideId",
          "type": "uint256"
        },
        {
          "indexed": false,
          "internalType": "bytes32",
          "name": "rideHash",
          "type": "bytes32"
        },
        {
          "indexed": false,
          "internalType": "uint256",
          "name": "fare",
          "type": "uint256"
        },
        {
          "indexed": true,
          "internalType": "address",
          "name": "rider",
          "type": "address"
        },
        {
          "indexed": true,
          "internalType": "address",
          "name": "driver",
          "type": "address"
        },
        {
          "indexed": false,
          "internalType": "bytes32",
          "name": "riderName",
          "type": "bytes32"
        },
        {
          "indexed": false,
          "internalType": "bytes32",
          "name": "driverName",
          "type": "bytes32"
        },
        {
          "indexed": false,
          "internalType": "uint256",
          "name": "numberPlate",
          "type": "uint256"
        },
        {
          "indexed": false,
          "internalType": "uint256",
          "name": "riderPhoneNumber",
          "type": "uint256"
        },
        {
          "indexed": false,
          "internalType": "uint256",
          "name": "driverPhoneNumber",
          "type": "uint256"
        }
      ],
      "name": "RideLogged",
      "type": "event"
    },
    {
      "anonymous": false,
      "inputs": [
        {
          "indexed": true,
          "internalType": "uint256",
          "name": "rideId",
          "type": "uint256"
        },
        {
          "indexed": false,
          "internalType": "bytes32",
          "name": "rideHash",
          "type": "bytes32"
        },
        {
          "indexed": true,
          "internalType": "address",
          "name": "rider",
          "type": "address"
        },
        {
          "indexed": true,
          "internalType": "address",
          "name": "driver",
          "type": "address"
        },
        {
          "indexed": false,
          "internalType": "uint96",
          "name": "riderPaid",
          "type": "uint96"
        },
        {
          "indexed": false,
          "internalType": "uint96",
          "name": "driverShare",
          "type": "uint96"
        },
        {
          "indexed": false,
          "internalType": "uint96",
          "name": "platformFee",
          "type": "uint96"
        }
      ],
      "name": "RideSplitLogged",
      "type": "event"
    },
    {
      "inputs": [],
      "name": "admin",
      "outputs": [
        {
          "internalType": "address",
          "name": "",
          "type": "address"
        }
      ],
      "stateMutability": "view",
      "type": "function"
    },
    {
      "inputs": [],
      "name": "backend",
      "outputs": [
        {
          "internalType": "address",
          "name": "",
          "type": "address"
        }
      ],
      "stateMutability": "view",
      "type": "function"
    },
    {
      "inputs": [
        {
          "internalType": "uint256",
          "name": "id",
          "type": "uint256"
        }
      ],
      "name": "dispute",
      "outputs": [],
      "stateMutability": "nonpayable",
      "type": "function"
    },
    {
      "inputs": [
        {
          "internalType": "uint256",
          "name": "rideId",
          "type": "uint256"
        }
      ],
      "name": "disputeRide",
      "outputs": [],
      "stateMutability": "nonpayable",
      "type": "function"
    },
    {
      "inputs": [
        {
          "internalType": "address",
          "name": "forwarder",
          "type": "address"
        }
      ],
      "name": "isTrustedForwarder",
      "outputs": [
        {
          "internalType": "bool",
          "name": "",
          "type": "bool"
        }
      ],
      "stateMutability": "view",
      "type": "function"
    },
    {
      "inputs": [
        {
          "internalType": "bytes32",
          "name": "rideHash",
          "type": "bytes32"
        },
        {
          "internalType": "address",
          "name": "rider",
          "type": "address"
        },
        {
          "internalType": "address",
          "name": "driver",
          "type": "address"
        },
        {
          "internalType": "uint96",
          "name": "riderPaid",
          "type": "uint96"
        },
        {
          "internalType": "uint96",
          "name": "driverShare",
          "type": "uint96"
        },
        {
          "internalType": "uint96",
          "name": "platformFee",
          "type": "uint96"
        }
      ],
      "name": "logRide",
      "outputs": [
        {
          "internalType": "uint256",
          "name": "",
          "type": "uint256"
        }
      ],
      "stateMutability": "nonpayable",
      "type": "function"
    },
    {
      "inputs": [
        {
          "internalType": "bytes32",
          "name": "_rideHash",
          "type": "bytes32"
        },
        {
          "internalType": "uint256",
          "name": "_fare",
          "type": "uint256"
        },
        {
          "internalType": "address",
          "name": "_rider",
          "type": "address"
        },
        {
          "internalType": "address",
          "name": "_driver",
          "type": "address"
        },
        {
          "internalType": "bytes32",
          "name": "_riderName",
          "type": "bytes32"
        },
        {
          "internalType": "bytes32",
          "name": "_driverName",
          "type": "bytes32"
        },
        {
          "internalType": "uint256",
          "name": "_numberPlate",
          "type": "uint256"
        },
        {
          "internalType": "uint256",
          "name": "_riderPhoneNumber",
          "type": "uint256"
        },
        {
          "internalType": "uint256",
          "name": "_driverPhoneNumber",
          "type": "uint256"
        }
      ],
      "name": "logRide",
      "outputs": [
        {
          "internalType": "uint256",
          "name": "",
          "type": "uint256"
        }
      ],
      "stateMutability": "nonpayable",
      "type": "function"
    },
    {
      "inputs": [],
      "name": "nextRideId",
      "outputs": [
        {
          "internalType": "uint256",
          "name": "",
          "type": "uint256"
        }
      ],
      "stateMutability": "view",
      "type": "function"
    },
    {
      "inputs": [
        {
          "internalType": "uint256",
          "name": "",
          "type": "uint256"
        }
      ],
      "name": "rides",
      "outputs": [
        {
          "internalType": "bytes32",
          "name": "rideHash",
          "type": "bytes32"
        },
        {
          "internalType": "uint256",
          "name": "fare",
          "type": "uint256"
        },
        {
          "internalType": "address",
          "name": "rider",
          "type": "address"
        },
        {
          "internalType": "address",
          "name": "driver",
          "type": "address"
        },
        {
          "internalType": "bool",
          "name": "disputed",
          "type": "bool"
        },
        {
          "internalType": "bytes32",
          "name": "riderName",
          "type": "bytes32"
        },
        {
          "internalType": "bytes32",
          "name": "driverName",
          "type": "bytes32"
        },
        {
          "internalType": "uint256",
          "name": "numberPlate",
          "type": "uint256"
        },
        {
          "internalType": "uint256",
          "name": "riderPhoneNumber",
          "type": "uint256"
        },
        {
          "internalType": "uint256",
          "name": "driverPhoneNumber",
          "type": "uint256"
        }
      ],
      "stateMutability": "view",
      "type": "function"
    },
    {
      "inputs": [
        {
          "internalType": "uint256",
          "name": "",
          "type": "uint256"
        }
      ],
      "name": "splits",
      "outputs": [
        {
          "internalType": "uint96",
          "name": "riderPaid",
          "type": "uint96"
        },
        {
          "internalType": "uint96",
          "name": "driverShare",
          "type": "uint96"
        },
        {
          "internalType": "uint96",
          "name": "platformFee",
          "type": "uint96"
        }
      ],
      "stateMutability": "view",
      "type": "function"
    }
  ],
  "bytecode": "0x60a06040523480156200001157600080fd5b5060405162001c8138038062001c8183398181016040528101906200003791906200026a565b81808073ffffffffffffffffffffffffffffffffffffffff1660808173ffffffffffffffffffffffffffffffffffffffff1681525050506200007e6200010860201b60201c565b600260006101000a81548173ffffffffffffffffffffffffffffffffffffffff021916908373ffffffffffffffffffffffffffffffffffffffff1602179055505080600460006101000a81548173ffffffffffffffffffffffffffffffffffffffff021916908373ffffffffffffffffffffffffffffffffffffffff16021790555050506200041a565b60006200011a6200011f60201b60201c565b905090565b6000806000369050905060006200013b620001b560201b60201c565b90506200014e33620001be60201b60201c565b80156200015b5750808210155b156200019d576000368284620001729190620002ea565b90809262000183939291906200032f565b90620001909190620003b4565b60601c92505050620001b2565b620001ad620001f860201b60201c565b925050505b90565b60006014905090565b600060805173ffffffffffffffffffffffffffffffffffffffff168273ffffffffffffffffffffffffffffffffffffffff16149050919050565b600033905090565b600080fd5b600073ffffffffffffffffffffffffffffffffffffffff82169050919050565b6000620002328262000205565b9050919050565b620002448162000225565b81146200025057600080fd5b50565b600081519050620002648162000239565b92915050565b6000806040838503121562000284576200028362000200565b5b6000620002948582860162000253565b9250506020620002a78582860162000253565b9150509250929050565b6000819050919050565b7f4e487b7100000000000000000000000000000000000000000000000000000000600052601160045260246000fd5b6000620002f782620002b1565b91506200030483620002b1565b92508282039050818111156200031f576200031e620002bb565b5b92915050565b600080fd5b600080fd5b6000808585111562000346576200034562000325565b5b838611156200035a57620003596200032a565b5b6001850283019150848603905094509492505050565b600082905092915050565b60007fffffffffffffffffffffffffffffffffffffffff00000000000000000000000082169050919050565b600082821b905092915050565b6000620003c2838362000370565b82620003cf81356200037b565b9250601482101562000412576200040d7fffffffffffffffffffffffffffffffffffffffff00000000000000000000000083601403600802620003a7565b831692505b505092915050565b60805161184b6200043660003960006106f8015261184b6000f3fe608060405234801561001057600080fd5b506004361061009e5760003560e01c8063754ed83a11610066578063754ed83a1461018a57806386d6282c146101a8578063884c3006146101c4578063f595b8b6146101f6578063f851a440146102125761009e565b8063099e4133146100a35780634c76114e146100c15780635205f112146100f1578063572b6c051461012a57806371ef991e1461015a575b600080fd5b6100ab610230565b6040516100b89190610f03565b60405180910390f35b6100db60048036038101906100d69190610fc9565b610256565b6040516100e8919061106f565b60405180910390f35b61010b600480360381019061010691906110b6565b610653565b6040516101219a9998979695949392919061110d565b60405180910390f35b610144600480360381019061013f91906111a9565b6106f4565b60405161015191906111d6565b60405180910390f35b610174600480360381019061016f91906111f1565b61074c565b604051610181919061106f565b60405180910390f35b610192610a03565b60405161019f919061106f565b60405180910390f35b6101c260048036038101906101bd91906110b6565b610a09565b005b6101de60048036038101906101d991906110b6565b610bcf565b6040516101ed939291906112ca565b60405180910390f35b610210600480360381019061020b91906110b6565b610c41565b005b61021a610e07565b6040516102279190610f03565b60405180910390f35b600460009054906101000a900473ffffffffffffffffffffffffffffffffffffffff1681565b6000600460009054906101000a900473ffffffffffffffffffffffffffffffffffffffff1673ffffffffffffffffffffffffffffffffffffffff16610299610e2d565b73ffffffffffffffffffffffffffffffffffffffff16146102ef576040517f08c379a00000000000000000000000000000000000000000000000000000000081526004016102e69061135e565b60405180910390fd5b600060016000815480929190610304906113ad565b9190505590506000836bffffffffffffffffffffffff16856bffffffffffffffffffffffff16876bffffffffffffffffffffffff1661034391906113f5565b61034d91906113f5565b90506040518061014001604052808a81526020018281526020018973ffffffffffffffffffffffffffffffffffffffff1681526020018873ffffffffffffffffffffffffffffffffffffffff1681526020016000151581526020016000801b81526020016000801b815260200160008152602001600081526020016000815250600080848152602001908152602001600020600082015181600001556020820151816001015560408201518160020160006101000a81548173ffffffffffffffffffffffffffffffffffffffff021916908373ffffffffffffffffffffffffffffffffffffffff16021790555060608201518160030160006101000a81548173ffffffffffffffffffffffffffffffffffffffff021916908373ffffffffffffffffffffffffffffffffffffffff16021790555060808201518160030160146101000a81548160ff02191690831515021790555060a0820151816004015560c0820151816005015560e08201518160060155610100820151816007015561012082015181600801559050506040518060600160405280876bffffffffffffffffffffffff168152602001866bffffffffffffffffffffffff168152602001856bffffffffffffffffffffffff168152506003600084815260200190815260200160002060008201518160000160006101000a8154816bffffffffffffffffffffffff02191690836bffffffffffffffffffffffff160217905550602082015181600001600c6101000a8154816bffffffffffffffffffffffff02191690836bffffffffffffffffffffffff16021790555060408201518160010160006101000a8154816bffffffffffffffffffffffff02191690836bffffffffffffffffffffffff1602179055509050508673ffffffffffffffffffffffffffffffffffffffff168873ffffffffffffffffffffffffffffffffffffffff16837f646a0b34353dbd93ec0f8cd3f3723725c891eca95f19e17ae5f8a7a5edb8be448c8a8a8a60405161063c9493929190611429565b60405180910390a481925050509695505050505050565b60006020528060005260406000206000915090508060000154908060010154908060020160009054906101000a900473ffffffffffffffffffffffffffffffffffffffff16908060030160009054906101000a900473ffffffffffffffffffffffffffffffffffffffff16908060030160149054906101000a900460ff1690806004015490806005015490806006015490806007015490806008015490508a565b60007f000000000000000000000000000000000000000000000000000000000000000073ffffffffffffffffffffffffffffffffffffffff168273ffffffffffffffffffffffffffffffffffffffff16149050919050565b6000600260009054906101000a900473ffffffffffffffffffffffffffffffffffffffff1673ffffffffffffffffffffffffffffffffffffffff1661078f610e2d565b73ffffffffffffffffffffffffffffffffffffffff16146107e5576040517f08c379a00000000000000000000000000000000000000000000000000000000081526004016107dc906114ba565b60405180910390fd5b6000600160008154809291906107fa906113ad565b9190505590506040518061014001604052808c81526020018b81526020018a73ffffffffffffffffffffffffffffffffffffffff1681526020018973ffffffffffffffffffffffffffffffffffffffff16815260200160001515815260200188815260200187815260200186815260200185815260200184815250600080838152602001908152602001600020600082015181600001556020820151816001015560408201518160020160006101000a81548173ffffffffffffffffffffffffffffffffffffffff021916908373ffffffffffffffffffffffffffffffffffffffff16021790555060608201518160030160006101000a81548173ffffffffffffffffffffffffffffffffffffffff021916908373ffffffffffffffffffffffffffffffffffffffff16021790555060808201518160030160146101000a81548160ff02191690831515021790555060a0820151816004015560c0820151816005015560e08201518160060155610100820151816007015561012082015181600801559050508773ffffffffffffffffffffffffffffffffffffffff168973ffffffffffffffffffffffffffffffffffffffff16827ff57fc3a40d17c0710c18167ad458c18988b72ba6e7d6f5791a73b4022cbb6aa48e8e8c8c8c8c8c6040516109ea97969594939291906114da565b60405180910390a4809150509998505050505050505050565b60015481565b600080600083815260200190815260200160002090506000610a29610e2d565b90508160020160009054906101000a900473ffffffffffffffffffffffffffffffffffffffff1673ffffffffffffffffffffffffffffffffffffffff168173ffffffffffffffffffffffffffffffffffffffff161480610ad857508160030160009054906101000a900473ffffffffffffffffffffffffffffffffffffffff1673ffffffffffffffffffffffffffffffffffffffff168173ffffffffffffffffffffffffffffffffffffffff16145b610b17576040517f08c379a0000000000000000000000000000000000000000000000000000000008152600401610b0e90611595565b60405180910390fd5b8160030160149054906101000a900460ff1615610b69576040517f08c379a0000000000000000000000000000000000000000000000000000000008152600401610b6090611601565b60405180910390fd5b60018260030160146101000a81548160ff0219169083151502179055508073ffffffffffffffffffffffffffffffffffffffff16837f67a3ac0f918725a518d5b5e6ea658c782a39cc66833f21f02ed5c9ff36d3134d60405160405180910390a3505050565b60036020528060005260406000206000915090508060000160009054906101000a90046bffffffffffffffffffffffff169080600001600c9054906101000a90046bffffffffffffffffffffffff16908060010160009054906101000a90046bffffffffffffffffffffffff16905083565b600080600083815260200190815260200160002090506000610c61610e2d565b90508160020160009054906101000a900473ffffffffffffffffffffffffffffffffffffffff1673ffffffffffffffffffffffffffffffffffffffff168173ffffffffffffffffffffffffffffffffffffffff161480610d1057508160030160009054906101000a900473ffffffffffffffffffffffffffffffffffffffff1673ffffffffffffffffffffffffffffffffffffffff168173ffffffffffffffffffffffffffffffffffffffff16145b610d4f576040517f08c379a0000000000000000000000000000000000000000000000000000000008152600401610d469061166d565b60405180910390fd5b8160030160149054906101000a900460ff1615610da1576040517f08c379a0000000000000000000000000000000000000000000000000000000008152600401610d98906116d9565b60405180910390fd5b60018260030160146101000a81548160ff0219169083151502179055508073ffffffffffffffffffffffffffffffffffffffff16837f7793040ba868ce7ae6c58f6eeb426d2680fdf42e42bcaee16bfcaf4269dba99560405160405180910390a3505050565b600260009054906101000a900473ffffffffffffffffffffffffffffffffffffffff1681565b6000610e37610e3c565b905090565b600080600036905090506000610e50610eb1565b9050610e5b336106f4565b8015610e675750808210155b15610ea1576000368284610e7b91906116f9565b908092610e8a93929190611737565b90610e9591906117b6565b60601c92505050610eae565b610ea9610eba565b925050505b90565b60006014905090565b600033905090565b600073ffffffffffffffffffffffffffffffffffffffff82169050919050565b6000610eed82610ec2565b9050919050565b610efd81610ee2565b82525050565b6000602082019050610f186000830184610ef4565b92915050565b600080fd5b6000819050919050565b610f3681610f23565b8114610f4157600080fd5b50565b600081359050610f5381610f2d565b92915050565b610f6281610ee2565b8114610f6d57600080fd5b50565b600081359050610f7f81610f59565b92915050565b60006bffffffffffffffffffffffff82169050919050565b610fa681610f85565b8114610fb157600080fd5b50565b600081359050610fc381610f9d565b92915050565b60008060008060008060c08789031215610fe657610fe5610f1e565b5b6000610ff489828a01610f44565b965050602061100589828a01610f70565b955050604061101689828a01610f70565b945050606061102789828a01610fb4565b935050608061103889828a01610fb4565b92505060a061104989828a01610fb4565b9150509295509295509295565b6000819050919050565b61106981611056565b82525050565b60006020820190506110846000830184611060565b92915050565b61109381611056565b811461109e57600080fd5b50565b6000813590506110b08161108a565b92915050565b6000602082840312156110cc576110cb610f1e565b5b60006110da848285016110a1565b91505092915050565b6110ec81610f23565b82525050565b60008115159050919050565b611107816110f2565b82525050565b600061014082019050611123600083018d6110e3565b611130602083018c611060565b61113d604083018b610ef4565b61114a606083018a610ef4565b61115760808301896110fe565b61116460a08301886110e3565b61117160c08301876110e3565b61117e60e0830186611060565b61118c610100830185611060565b61119a610120830184611060565b9b9a5050505050505050505050565b6000602082840312156111bf576111be610f1e565b5b60006111cd84828501610f70565b91505092915050565b60006020820190506111eb60008301846110fe565b92915050565b60008060008060008060008060006101208a8c03121561121457611213610f1e565b5b60006112228c828d01610f44565b99505060206112338c828d016110a1565b98505060406112448c828d01610f70565b97505060606112558c828d01610f70565b96505060806112668c828d01610f44565b95505060a06112778c828d01610f44565b94505060c06112888c828d016110a1565b93505060e06112998c828d016110a1565b9250506101006112ab8c828d016110a1565b9150509295985092959850929598565b6112c481610f85565b82525050565b60006060820190506112df60008301866112bb565b6112ec60208301856112bb565b6112f960408301846112bb565b949350505050565b600082825260208201905092915050565b7f457874656e6465643a2063616c6c6572206973206e6f74206261636b656e6400600082015250565b6000611348601f83611301565b915061135382611312565b602082019050919050565b600060208201905081810360008301526113778161133b565b9050919050565b7f4e487b7100000000000000000000000000000000000000000000000000000000600052601160045260246000fd5b60006113b882611056565b91507fffffffffffffffffffffffffffffffffffffffffffffffffffffffffffffffff82036113ea576113e961137e565b5b600182019050919050565b600061140082611056565b915061140b83611056565b92508282019050808211156114235761142261137e565b5b92915050565b600060808201905061143e60008301876110e3565b61144b60208301866112bb565b61145860408301856112bb565b61146560608301846112bb565b95945050505050565b7f52696465724c65646765723a2063616c6c6572206973206e6f742061646d696e600082015250565b60006114a4602083611301565b91506114af8261146e565b602082019050919050565b600060208201905081810360008301526114d381611497565b9050919050565b600060e0820190506114ef600083018a6110e3565b6114fc6020830189611060565b61150960408301886110e3565b61151660608301876110e3565b6115236080830186611060565b61153060a0830185611060565b61153d60c0830184611060565b98975050505050505050565b7f457874656e6465643a206e6f74207061727469636970616e7400000000000000600082015250565b600061157f601983611301565b915061158a82611549565b602082019050919050565b600060208201905081810360008301526115ae81611572565b9050919050565b7f457874656e6465643a20616c7265616479206469737075746564000000000000600082015250565b60006115eb601a83611301565b91506115f6826115b5565b602082019050919050565b6000602082019050818103600083015261161a816115de565b9050919050565b7f52696465724c65646765723a206e6f74207061727469636970616e7400000000600082015250565b6000611657601c83611301565b915061166282611621565b602082019050919050565b600060208201905081810360008301526116868161164a565b9050919050565b7f52696465724c65646765723a20616c7265616479206469737075746564000000600082015250565b60006116c3601d83611301565b91506116ce8261168d565b602082019050919050565b600060208201905081810360008301526116f2816116b6565b9050919050565b600061170482611056565b915061170f83611056565b92508282039050818111156117275761172661137e565b5b92915050565b600080fd5b600080fd5b6000808585111561174b5761174a61172d565b5b8386111561175c5761175b611732565b5b6001850283019150848603905094509492505050565b600082905092915050565b60007fffffffffffffffffffffffffffffffffffffffff00000000000000000000000082169050919050565b600082821b905092915050565b60006117c28383611772565b826117cd813561177d565b9250601482101561180d576118087fffffffffffffffffffffffffffffffffffffffff000000000000000000000000836014036008026117a9565b831692505b50509291505056fea2646970667358221220297425e19fcfce3366c8100aad881cf88af5a4a444a8a31526216adac149f51b64736f6c63430008140033",
  "linkReferences": {},
  "deployedLinkReferences": {}
}