{
  "_format": "hh-sol-artifact-1",
  "contractName": "RiderLedger",
  "sourceName": "contracts/RideLedger.sol",
  "abi": [
    {
      "inputs": [
        {
          "internalType": "address",
          "name": "forwarder",
          "type": "address"
        }
      ],
      "stateMutability": "nonpayable",
      "type": "constructor"
    },
    {
      "anonymous": false,
      "inputs": [
        {
          "indexed": true,
          "internalType": "uint256",
          "name": "rideId",
          "type": "uint256"
        },
        {
          "indexed": true,
          "internalType": "address",
          "name": "by",
          "type": "address"
        }
      ],
      "name": "RideDisputed",
      "type": "event"
    },
    {
      "anonymous": false,
      "inputs": [
        {
          "indexed": true,
          "internalType": "uint256",
          "name": "rideId",
          "type": "uint256"
        },
        {
          "indexed": false,
          "internalType": "bytes32",
          "name": "rideHash",
          "type": "bytes32"
        },
        {
          "indexed": false,
          "internalType": "uint256",
          "name": "fare",
          "type": "uint256"
        },
        {
          "indexed": true,
          "internalType": "address",
          "name": "rider",
          "type": "address"
        },
        {
          "indexed": true,
          "internalType": "address",
          "name": "driver",
          "type": "address"
        },
        {
          "indexed": false,
          "internalType": "bytes32",
          "name": "riderName",
          "type": "bytes32"
        },
        {
          "indexed": false,
          "internalType": "bytes32",
          "name": "driverName",
          "type": "bytes32"
        },
        {
          "indexed": false,
          "internalType": "uint256",
          "name": "numberPlate",
          "type": "uint256"
        },
        {
          "indexed": false,
          "internalType": "uint256",
          "name": "riderPhoneNumber",
          "type": "uint256"
        },
        {
          "indexed": false,
          "internalType": "uint256",
          "name": "driverPhoneNumber",
          "type": "uint256"
        }
      ],
      "name": "RideLogged",
      "type": "event"
    },
    {
      "inputs": [],
      "name": "admin",
      "outputs": [
        {
          "internalType": "address",
          "name": "",
          "type": "address"
        }
      ],
      "stateMutability": "view",
      "type": "function"
    },
    {
      "inputs": [
        {
          "internalType": "uint256",
          "name": "rideId",
          "type": "uint256"
        }
      ],
      "name": "disputeRide",
      "outputs": [],
      "stateMutability": "nonpayable",
      "type": "function"
    },
    {
      "inputs": [
        {
          "internalType": "address",
          "name": "forwarder",
          "type": "address"
        }
      ],
      "name": "isTrustedForwarder",
      "outputs": [
        {
          "internalType": "bool",
          "name": "",
          "type": "bool"
        }
      ],
      "stateMutability": "view",
      "type": "function"
    },
    {
      "inputs": [
        {
          "internalType": "bytes32",
          "name": "_rideHash",
          "type": "bytes32"
        },
        {
          "internalType": "uint256",
          "name": "_fare",
          "type": "uint256"
        },
        {
          "internalType": "address",
          "name": "_rider",
          "type": "address"
        },
        {
          "internalType": "address",
          "name": "_driver",
          "type": "address"
        },
        {
          "internalType": "bytes32",
          "name": "_riderName",
          "type": "bytes32"
        },
        {
          "internalType": "bytes32",
          "name": "_driverName",
          "type": "bytes32"
        },
        {
          "internalType": "uint256",
          "name": "_numberPlate",
          "type": "uint256"
        },
        {
          "internalType": "uint256",
          "name": "_riderPhoneNumber",
          "type": "uint256"
        },
        {
          "internalType": "uint256",
          "name": "_driverPhoneNumber",
          "type": "uint256"
        }
      ],
      "name": "logRide",
      "outputs": [
        {
          "internalType": "uint256",
          "name": "",
          "type": "uint256"
        }
      ],
      "stateMutability": "nonpayable",
      "type": "function"
    },
    {
      "inputs": [],
      "name": "nextRideId",
      "outputs": [
        {
          "internalType": "uint256",
          "name": "",
          "type": "uint256"
        }
      ],
      "stateMutability": "view",
      "type": "function"
    },
    {
      "inputs": [
        {
          "internalType": "uint256",
          "name": "",
          "type": "uint256"
        }
      ],
      "name": "rides",
      "outputs": [
        {
          "internalType": "bytes32",
          "name": "rideHash",
          "type": "bytes32"
        },
        {
          "internalType": "uint256",
          "name": "fare",
          "type": "uint256"
        },
        {
          "internalType": "address",
          "name": "rider",
          "type": "address"
        },
        {
          "internalType": "address",
          "name": "driver",
          "type": "address"
        },
        {
          "internalType": "bool",
          "name": "disputed",
          "type": "bool"
        },
        {
          "internalType": "bytes32",
          "name": "riderName",
          "type": "bytes32"
        },
        {
          "internalType": "bytes32",
          "name": "driverName",
          "type": "bytes32"
        },
        {
          "internalType": "uint256",
          "name": "numberPlate",
          "type": "uint256"
        },
        {
          "internalType": "uint256",
          "name": "riderPhoneNumber",
          "type": "uint256"
        },
        {
          "internalType": "uint256",
          "name": "driverPhoneNumber",
          "type": "uint256"
        }
      ],
      "stateMutability": "view",
      "type": "function"
    }
  ],
  "bytecode": "0x60a06040523480156200001157600080fd5b506040516200122138038062001221833981810160405281019062000037919062000226565b808073ffffffffffffffffffffffffffffffffffffffff1660808173ffffffffffffffffffffffffffffffffffffffff1681525050506200007d620000c460201b60201c565b600260006101000a81548173ffffffffffffffffffffffffffffffffffffffff021916908373ffffffffffffffffffffffffffffffffffffffff16021790555050620003c1565b6000620000d6620000db60201b60201c565b905090565b600080600036905090506000620000f76200017160201b60201c565b90506200010a336200017a60201b60201c565b8015620001175750808210155b15620001595760003682846200012e919062000291565b9080926200013f93929190620002d6565b906200014c91906200035b565b60601c925050506200016e565b62000169620001b460201b60201c565b925050505b90565b60006014905090565b600060805173ffffffffffffffffffffffffffffffffffffffff168273ffffffffffffffffffffffffffffffffffffffff16149050919050565b600033905090565b600080fd5b600073ffffffffffffffffffffffffffffffffffffffff82169050919050565b6000620001ee82620001c1565b9050919050565b6200020081620001e1565b81146200020c57600080fd5b50565b6000815190506200022081620001f5565b92915050565b6000602082840312156200023f576200023e620001bc565b5b60006200024f848285016200020f565b91505092915050565b6000819050919050565b7f4e487b7100000000000000000000000000000000000000000000000000000000600052601160045260246000fd5b60006200029e8262000258565b9150620002ab8362000258565b9250828203905081811115620002c657620002c562000262565b5b92915050565b600080fd5b600080fd5b60008085851115620002ed57620002ec620002cc565b5b83861115620003015762000300620002d1565b5b6001850283019150848603905094509492505050565b600082905092915050565b60007fffffffffffffffffffffffffffffffffffffffff00000000000000000000000082169050919050565b600082821b905092915050565b600062000369838362000317565b8262000376813562000322565b92506014821015620003b957620003b47fffffffffffffffffffffffffffffffffffffffff000000000000000000000000836014036008026200034e565b831692505b505092915050565b608051610e44620003dd60003960006101fd0152610e446000f3fe608060405234801561001057600080fd5b50600436106100625760003560e01c80635205f11214610067578063572b6c05146100a057806371ef991e146100d0578063754ed83a14610100578063f595b8b61461011e578063f851a4401461013a575b600080fd5b610081600480360381019061007c91906107ca565b610158565b6040516100979a9998979695949392919061087b565b60405180910390f35b6100ba60048036038101906100b59190610943565b6101f9565b6040516100c79190610970565b60405180910390f35b6100ea60048036038101906100e591906109b7565b610251565b6040516100f79190610a81565b60405180910390f35b610108610508565b6040516101159190610a81565b60405180910390f35b610138600480360381019061013391906107ca565b61050e565b005b6101426106d4565b60405161014f9190610a9c565b60405180910390f35b60006020528060005260406000206000915090508060000154908060010154908060020160009054906101000a900473ffffffffffffffffffffffffffffffffffffffff16908060030160009054906101000a900473ffffffffffffffffffffffffffffffffffffffff16908060030160149054906101000a900460ff1690806004015490806005015490806006015490806007015490806008015490508a565b60007f000000000000000000000000000000000000000000000000000000000000000073ffffffffffffffffffffffffffffffffffffffff168273ffffffffffffffffffffffffffffffffffffffff16149050919050565b6000600260009054906101000a900473ffffffffffffffffffffffffffffffffffffffff1673ffffffffffffffffffffffffffffffffffffffff166102946106fa565b73ffffffffffffffffffffffffffffffffffffffff16146102ea576040517f08c379a00000000000000000000000000000000000000000000000000000000081526004016102e190610b14565b60405180910390fd5b6000600160008154809291906102ff90610b63565b9190505590506040518061014001604052808c81526020018b81526020018a73ffffffffffffffffffffffffffffffffffffffff1681526020018973ffffffffffffffffffffffffffffffffffffffff16815260200160001515815260200188815260200187815260200186815260200185815260200184815250600080838152602001908152602001600020600082015181600001556020820151816001015560408201518160020160006101000a81548173ffffffffffffffffffffffffffffffffffffffff021916908373ffffffffffffffffffffffffffffffffffffffff16021790555060608201518160030160006101000a81548173ffffffffffffffffffffffffffffffffffffffff021916908373ffffffffffffffffffffffffffffffffffffffff16021790555060808201518160030160146101000a81548160ff02191690831515021790555060a0820151816004015560c0820151816005015560e08201518160060155610100820151816007015561012082015181600801559050508773ffffffffffffffffffffffffffffffffffffffff168973ffffffffffffffffffffffffffffffffffffffff16827ff57fc3a40d17c0710c18167ad458c18988b72ba6e7d6f5791a73b4022cbb6aa48e8e8c8c8c8c8c6040516104ef9796959493929190610bab565b60405180910390a4809150509998505050505050505050565b60015481565b60008060008381526020019081526020016000209050600061052e6106fa565b90508160020160009054906101000a900473ffffffffffffffffffffffffffffffffffffffff1673ffffffffffffffffffffffffffffffffffffffff168173ffffffffffffffffffffffffffffffffffffffff1614806105dd57508160030160009054906101000a900473ffffffffffffffffffffffffffffffffffffffff1673ffffffffffffffffffffffffffffffffffffffff168173ffffffffffffffffffffffffffffffffffffffff16145b61061c576040517f08c379a000000000000000000000000000000000000000000000000000000000815260040161061390610c66565b60405180910390fd5b8160030160149054906101000a900460ff161561066e576040517f08c379a000000000000000000000000000000000000000000000000000000000815260040161066590610cd2565b60405180910390fd5b60018260030160146101000a81548160ff0219169083151502179055508073ffffffffffffffffffffffffffffffffffffffff16837f7793040ba868ce7ae6c58f6eeb426d2680fdf42e42bcaee16bfcaf4269dba99560405160405180910390a3505050565b600260009054906101000a900473ffffffffffffffffffffffffffffffffffffffff1681565b6000610704610709565b905090565b60008060003690509050600061071d61077e565b9050610728336101f9565b80156107345750808210155b1561076e5760003682846107489190610cf2565b90809261075793929190610d30565b906107629190610daf565b60601c9250505061077b565b610776610787565b925050505b90565b60006014905090565b600033905090565b600080fd5b6000819050919050565b6107a781610794565b81146107b257600080fd5b50565b6000813590506107c48161079e565b92915050565b6000602082840312156107e0576107df61078f565b5b60006107ee848285016107b5565b91505092915050565b6000819050919050565b61080a816107f7565b82525050565b61081981610794565b82525050565b600073ffffffffffffffffffffffffffffffffffffffff82169050919050565b600061084a8261081f565b9050919050565b61085a8161083f565b82525050565b60008115159050919050565b61087581610860565b82525050565b600061014082019050610891600083018d610801565b61089e602083018c610810565b6108ab604083018b610851565b6108b8606083018a610851565b6108c5608083018961086c565b6108d260a0830188610801565b6108df60c0830187610801565b6108ec60e0830186610810565b6108fa610100830185610810565b610908610120830184610810565b9b9a5050505050505050505050565b6109208161083f565b811461092b57600080fd5b50565b60008135905061093d81610917565b92915050565b6000602082840312156109595761095861078f565b5b60006109678482850161092e565b91505092915050565b6000602082019050610985600083018461086c565b92915050565b610994816107f7565b811461099f57600080fd5b50565b6000813590506109b18161098b565b92915050565b60008060008060008060008060006101208a8c0312156109da576109d961078f565b5b60006109e88c828d016109a2565b99505060206109f98c828d016107b5565b9850506040610a0a8c828d0161092e565b9750506060610a1b8c828d0161092e565b9650506080610a2c8c828d016109a2565b95505060a0610a3d8c828d016109a2565b94505060c0610a4e8c828d016107b5565b93505060e0610a5f8c828d016107b5565b925050610100610a718c828d016107b5565b9150509295985092959850929598565b6000602082019050610a966000830184610810565b92915050565b6000602082019050610ab16000830184610851565b92915050565b600082825260208201905092915050565b7f52696465724c65646765723a2063616c6c6572206973206e6f742061646d696e600082015250565b6000610afe602083610ab7565b9150610b0982610ac8565b602082019050919050565b60006020820190508181036000830152610b2d81610af1565b9050919050565b7f4e487b7100000000000000000000000000000000000000000000000000000000600052601160045260246000fd5b6000610b6e82610794565b91507fffffffffffffffffffffffffffffffffffffffffffffffffffffffffffffffff8203610ba057610b9f610b34565b5b600182019050919050565b600060e082019050610bc0600083018a610801565b610bcd6020830189610810565b610bda6040830188610801565b610be76060830187610801565b610bf46080830186610810565b610c0160a0830185610810565b610c0e60c0830184610810565b98975050505050505050565b7f52696465724c65646765723a206e6f74207061727469636970616e7400000000600082015250565b6000610c50601c83610ab7565b9150610c5b82610c1a565b602082019050919050565b60006020820190508181036000830152610c7f81610c43565b9050919050565b7f52696465724c65646765723a20616c7265616479206469737075746564000000600082015250565b6000610cbc601d83610ab7565b9150610cc782610c86565b602082019050919050565b60006020820190508181036000830152610ceb81610caf565b9050919050565b6000610cfd82610794565b9150610d0883610794565b9250828203905081811115610d2057610d1f610b34565b5b92915050565b600080fd5b600080fd5b60008085851115610d4457610d43610d26565b5b83861115610d5557610d54610d2b565b5b6001850283019150848603905094509492505050565b600082905092915050565b60007fffffffffffffffffffffffffffffffffffffffff00000000000000000000000082169050919050565b600082821b905092915050565b6000610dbb8383610d6b565b82610dc68135610d76565b92506014821015610e0657610e017fffffffffffffffffffffffffffffffffffffffff00000000000000000000000083601403600802610da2565b831692505b50509291505056fea2646970667358221220481731bffb9660de3d809e4d2acab9b18901adf87a828b30bccdfc88f88f0b9a64736f6c63430008140033",
  "linkReferences": {},
  "deployedLinkReferences": {}
}